:020000041000EA
:1000000000B5324B212058609868022188439860DF
:10001000D860186158612E4B002199600221596106
:100020000121F02299502B49196001219960352056
:1000300000F044F80222904214D00621196600F024
:1000400034F8196E01211966002018661A6600F04E
:100050002CF8196E196E196E052000F02FF8012189
:100060000842F9D1002199601B49196000215960AB
:100070001A491B48016001219960EB211966A021F2
:10008000196600F012F800219960164914480160C1
:100090000121996001BC002800D000471248134993
:1000A000086003C880F30888084703B5996A0420EC
:1000B0000142FBD001200142F8D103BD02B5186610
:1000C0001866FFF7F2FF186E186E02BD00000240BE
:1000D000000000180000070000035F00212200005C
:1000E000F4000018222000A00001001008ED00E03C
:1000F00000000000000000000000000074B24E7A12
:1001000000200420F7010010C3010010C5010010F9
:10011000C1010010C1010010C1010010C101001097
:10012000C1010010C1010010C1010010C701001081
:10013000C1010010C1010010C9010010CB01001065
:10014000CD010010CD010010CD010010CD01001037
:10015000CD010010CD010010CD010010CD01001027
:10016000CD010010CD010010CD010010CD01001017
:10017000CD010010CD010010CD010010CD01001007
:10018000CD010010CD010010CD010010CD010010F7
:10019000CD010010CD010010CD010010CD010010E7
:1001A000CD010010CD010010CD010010CD010010D7
:1001B000CD010010CD010010CD010010CD010010C7
:1001C00000BE00BE00BE00BE00BE00BEEFF3058054
:1001D000103800BEF2EB887180490010A44900106D
:1001E0003402001090A31AE700201F49086006C8D7
:1001F00081F3088810471D48006800282FD10DA4FE
:100200000ECC002902D000F012F8F9E71849194A7B
:10021000002000E001C19142FCD1174988471749ED
:1002200088471749884700BEFDE701C901C29A42C5
:10023000FBD37047A4490010C000002098020020A2
:100240007C4B001000000420000004207C4B0010B8
:10025000001004200010042000000000704709482E
:1002600001F0F0FC0047000008ED00E0000000D0C5
:10027000980200203C0A0220B11A00107D030010F1
:10028000A51B00105756000006005250ABB3605338
:10029000BC48001006005250861C0302CC480010D7
:1002A000060052505422A29DD4480010050052501E
:1002B000DE65F4687C4B0010F8B5C0460448054B79
:1002C00010B5834203D0044B002B00D0984710BDDB
:1002D000980200209802002000000000064807490C
:1002E000091A8B10C90FC91810B5491003D0044B57
:1002F000002B00D0984710BD9802002098020020E3
:100300000000000010B5074C2378002B09D1FFF73F
:10031000D5FF054B002B02D0044800E000BF0123AD
:10032000237010BDD80500200000000038480010E0
:10033000054B10B5002B03D00449054800E000BF71
:10034000FFF7CCFF10BDC04600000000DC05002018
:100350003848001070B5D0258024074E2D06A4041F
:10036000FA206C6100F02CFD300002F0D7F8FA2082
:10037000AC6100F025FDF3E73848001000B583B00C
:1003800002F002F9192000F031F8D02380221B0678
:1003900092045A620023802201930133054900939D
:1003A00052000023044803F039F903F077FA0020E3
:1003B00003B000BD4448001055030010094A8300F3
:1003C00094464022634410B51C68C0006240C024BB
:1003D00014408022520113431C60034B9C4660442E
:1003E000416010BD04C00140004001400123D02203
:1003F0008340120693629361094A83009446402227
:1004000063441968C0004A40C02111408022520153
:1004100013431960034B9C460523604443607047B7
:1004200004C0014000400140024B18688007C00F23
:100430007047C04600C0064070B5EFF3108C72B62E
:100440000D4D2B68002BFCD0BFF35F8F0724CB082A
:10045000C618C05C01230C40A3401C0004400342AA
:1004600007D103433370BFF35F8F2C608CF3108888
:1004700070BD100001F09AFB2C0100D00021044B4C
:10048000044ABFF35F8F02C39342FAD17047C0465C
:10049000000100D0800100D0044A1078431CDBB278
:1004A000172B00D9102313707047C046B0010020ED
:1004B00001238340002904D0034A1360034A1360D8
:1004C0007047034A1360FBE780E200E000E100E0D0
:1004D00080E100E0024B10309B688000C0587047FC
:1004E00000ED00E070B50D00EFF3108672B60F4A14
:1004F0001368002BFCD0BFF35F8F0D4B10309B684F
:1005000084001B590B4A934203D09D4201D001F055
:100510006BFB074B9B681D51BFF35F8FBFF35F8F72
:100520000022024B1A6086F3108870BD240100D0AF
:1005300000ED00E0CD010010F0B5DE4657464E4616
:100540004546E0B50C0083B0EFF3108972B6584A07
:100550001368002BFCD0BFF35F8F564B9A680300E3
:1005600010339F00D559544A9046954232D0A54247
:1005700043D0524EAA1B2F2A2CD8012282409246E9
:1005800051464F4A12681140019151464D4A11603F
:10059000BFF35F8FEFF305829346002A33D1012327
:1005A0002A009A4393689C4208D177E04B005B187D
:1005B0009B00F3189968A1422AD01A0006215156CF
:1005C0000029F3DA019B002B19D052463E4B1A60EA
:1005D0003B4B1A60374B9B68DD51BFF35F8FBFF316
:1005E0005F8F0022324B1A6089F3108803B0F0BC91
:1005F000BB46B246A946A046F0BD1500EAE7524602
:10060000304B1A60E6E79342C9D001F0EDFAC6E735
:1006100006215956002921DB4A0050188000341861
:100620008046A0689860E079D871062020569871BD
:10063000002824DBA488F01A64052415444400191A
:10064000E0240005400D24022043988052181F4BDF
:100650009200B6181A781970B271B3E7594600299A
:100660000FD1FF3191711A49918018490A789A7116
:10067000184A9B1B5B415A43120D0A70A2E71648A9
:10068000E3E7164A1649D21A083A5002400D0143D0
:100690009980144952080A43DA8093E7062151569B
:1006A00013000029B8DA5A46002AEAD14546DCE7A9
:1006B000240100D000ED00E0CD010010B4010020C5
:1006C00000E100E080E100E080E200E0390A022081
:1006D00001BDFFFFAAAA000001BD0000EE0100203D
:1006E00000F0FFFF00F8FFFF70B5EFF30581012474
:1006F0000443EFF3108C72B6214A1368002BFCD030
:10070000BFF35F8F1F4B05001F4AED1A6D416A430F
:10071000120D1E4D8900AE6852B27658A6421CD00A
:100720000621595691421CD012215956914222D08D
:100730001E215956914220D02A2159560324914214
:1007400010D0134B19781A708171BFF35F8F00229C
:100750000B4B1A608CF3108870BDAB680D4C5C506D
:10076000EFE700246100091989005B18FF219971E6
:1007700009499980E5E70124F4E70224F2E7C0463D
:10078000240100D0B4010020AAAA000000ED00E07E
:10079000390A0220CD01001001BDFFFF054B064ABA
:1007A0001360064A136053609360D3601361536112
:1007B000936170478080808000E400E004E400E002
:1007C000024B9C4661448900016070474000003440
:1007D00010B50400FFF760FE01002000FFF7F0FFF6
:1007E00001235B426360BFF35F8F10BD10B504004F
:1007F000FFF752FE01002000FFF7E2FF01235B42FA
:10080000636000232372BFF35F8F10BD83680B48C2
:1008100010B5844661446244090112019A185918BE
:1008200054684B6801209C4201D802D00020C0B21D
:1008300010BD12680B689A42F9D8F7E7FFFFFF0F67
:10084000074810B50268EFF3108172B61368002BE9
:10085000FCD0BFF35F8F02F0D9F80020002110BD5B
:1008600030090020F8B557464E464546DE46E0B50D
:1008700099460CAB1C780DAB1B78060090469A4647
:100880000768002C11D1BC7B002C42D065003B686E
:100890002D19033D59194B78BB73002B00D1FB7305
:1008A00000238B704B700B7004E065003B682D19C2
:1008B000033D5919B2682A4B94464246E3181B017E
:1008C00063441A604A465A600A9A9A600B9ADA6040
:1008D00000238B704B700B707B7B9B46002B2BD0C7
:1008E00022005946B8687B6898473A68002816D0B5
:1008F0005B4658465B005B445519033BA870D11812
:10090000D35C002B00D06B705B460C707B73A345EF
:1009100013D0F0BCBB46B246A946A046F8BD5B4624
:100920005B005B44033BD3189C705119525D002A55
:1009300000D05A705B460B707C7342464B46307D4C
:1009400000F0B6FB051E06D05346002B03D1210054
:10095000306800F0D1FD0E9B002BDAD01D70D8E777
:10096000FFFFFF0FF0B5DE4657464E4645460023D3
:10097000E0B58BB00893674B8200D45800239B46A8
:10098000099000F00BFB626806000F00EFF3108582
:1009900072B61368002BFCD0BFF35F8F23689C46B0
:1009A0005B7B9946002B00D169E0A2685A4B9046C8
:1009B0004B441B01984443461A685B6810001900B9
:1009C000801BB941002900DC63E0099800F070FB4E
:1009D00000230022984600230692079300239A469C
:1009E0006368BFF35F8F5A461A6085F310885346D9
:1009F000002B08D10028C4D10BB0F0BCBB46B246D6
:100A0000A946A046F0BD089B414618024B46184334
:100A1000D047626806000F00EFF3108572B61368C6
:100A2000002BFCD0BFF35F8F002F50DB33003B4324
:100A300002D02369002B61D12368D97B002907D01C
:100A40004A00521819688C4649466244033A51706C
:100A50009A7B002A01D14A469A734A46DA734B467A
:100A6000E168013BCA5C0132CA545B46236163689A
:100A7000BFF35F8F5A461A6085F3108881E7002321
:100A800000229846002306920793002300209A46EE
:100A9000A6E7002902D1002800D096E70021604691
:100AA00000F0A8FC43461A685B6806920793434629
:100AB0009B689A464346DB689846E3684B44013B93
:100AC0001B7808931B0203432361002088E72369F6
:100AD000002BB1D0069A079B921BBB41002B15DB64
:100AE00059460491012103914946029141460191E1
:100AF000514620000091FFF7B5FEB6E700F04EFA30
:100B000032003B0012184B41002BE9DA0122034B63
:100B10005242E5E780060020FFFFFF0FFFFFFF7F47
:100B200010B5144C6368002B04D00A211248FFF75B
:100B300047FE10BD2300114A1021206800F074FB0D
:100B4000032000F01FFA032000F01CFB03200C49D7
:100B500000F068FAFFF7A0FC0A4B9C4603232375BC
:100B6000D0231B061B6860446375074B80006060E0
:100B7000DC60DAE7FC010020300900200D080010DD
:100B8000650900104000003480060020F0B54E4694
:100B90004546DE465746E0B585B0019310AB1B785D
:100BA0000600039300239946984600927268EFF37B
:100BB000108B72B61368002BFCD0BFF35F8F3568C3
:100BC000AC7B002C3DD067002B683F19033FDB193D
:100BD0005A78AA73002A00D1EA73B168474A8C4652
:100BE00000980199A21812016244106051600E9998
:100BF00091600F99D16042469A705A701A706B7B5F
:100C00009A46002B67D022001900A8686B689847A5
:100C10002A68002852D0534650465B005344D719E7
:100C2000033BB870D118D35C002B00D07B705346C7
:100C30000C706B7354454FD0F3681B19013B187847
:100C400000E000207368BFF35F8F42461A608BF3A9
:100C50001088002C4FD04B46002B08D100022043B7
:100C600005B0F0BCBB46B246A946A046F0BD039B0A
:100C7000002B3ED00E9B00200F99984703000400E4
:100C80000D000B4335D000290ADA009A019B121B94
:100C9000AB4100920193002B0ADB039B994685E749
:100CA00000F07CF924184D4100940195002DF4DAF0
:100CB0000123134C5B4200930194EEE753465B0023
:100CC0005344033BD3189C70D119D25D002A00D045
:100CD0005A7053460B706C73307D009A019B00F084
:100CE000E7F981460028A7D02100306800F004FC15
:100CF000A2E70020B4E701204042B1E7FFFFFF0F69
:100D0000FFFFFF7FF0B54746CE46040080B50D00DB
:100D100096267642F71736196F4185B08F4215D85F
:100D200012D000F03BF932003B00121A8B41002B2D
:100D300016DC002B39D02000290000F063F905B043
:100D4000C0BCB946B046F0BD8642EAD900260027AD
:100D500000F024F932003B00121A8B41002BE8DD31
:100D6000002302930193124B3200009311483B0081
:100D7000FFF70CFF0028DEDBB846B1460E4F0F4EE2
:100D8000736A984504D8B26A9145D4D99845D2D1AE
:100D90003A68EFF3108172B61368002BFCD0BFF3F2
:100DA0005F8F380001F0FEFDEAE7002AC3D0D7E7E5
:100DB00041080010FC0100203009002000400540DF
:100DC00070B5060000F0EAF8FA2204000D000023D6
:100DD00030000021920001F0FFF90019694100295B
:100DE00002DBFFF78FFF70BD012001494042F8E7A9
:100DF000FFFFFF7FF0B5EFF30583CE46474680B592
:100E000005000C0085B0002B12D02C4A0020536A3C
:100E10009C4203D8926A0130AA4204D305B0C0BCF8
:100E2000B946B046F0BDE01A421E9041C0B2F5E7A7
:100E3000234E02930193234B0200009330000B00DA
:100E4000FFF7A4FE031EE0DD20BF7168EFF31087FB
:100E500072B60A68002AFCD0BFF35F8FDAB29446FC
:100E60003068427B62451DD0FF221A4051008946FE
:100E700001689144884649464144033989780029EC
:100E800013D0F1681B0A88464244013A1278DBB25B
:100E90009A420FD07368BFF35F8F00221A6087F306
:100EA0001088B2E7FF221A40EBE732699342F1D192
:100EB0003161EFE7614600F01FFBEBE700400540C2
:100EC000FC01002041080010F0B5EFF30582D64682
:100ED0004F4646461000C0B51038EFF3108872B682
:100EE000214C2368002BFCD0BFF35F8F0123190036
:100EF00081401E4D1F006963AA461D4D29601D4D8E
:100F00002E78AC463500C5402F402B4209D1BFF3A7
:100F10005F8F276088F31088E0BCBA46B146A846C8
:100F2000F0BD5346144D5F6A83005D59AF420ED346
:100F3000124A8E439B5862461670BFF35F8F0022A1
:100F4000226088F31088002BE6D09847E4E70C4B2A
:100F500092009C46624413681360BFF35F8F0023C6
:100F6000236088F31088D7E7280100D000400540AF
:100F70003C7005403A0A022034090020F4050020A4
:100F8000D03F054010B50100024A0348FFF754FA6C
:100F900010BDC04650480010380A0220034B596A61
:100FA0000A00986A596A8A42FAD17047004005409F
:100FB00070B504000D00124A536A1900966A536A0C
:100FC0008B42FAD13000190024184D41AB4211D8A0
:100FD0000ED02B000A494A6A9A42FCD307D1084A2C
:100FE00002E0516A994202D1916AA142F9D370BDDF
:100FF000A642EED9012301246442E5175B42E9E7EA
:1010000000400540064A536A9942FCD807D1044B78
:1010100002E05A6A914202D19A6A8242F9D3704739
:101020000040054070B504000D00EFF3108672B665
:101030001A4A1368002BFCD0BFF35F8F002D1BD022
:101040002000FFF747FA164981420AD02000FFF737
:1010500049FA01212000FFF72BFA0123A340114A8E
:101060001360114BA400E550BFF35F8F00220B4BC0
:101070001A6086F3108870BD0B4BA200D550012278
:10108000A2400A4920000B7893430B700449FFF7F4
:1010900053FA00212000FFF70BFAE5E7280100D002
:1010A000C90E001038600540F40500203A0A0220FD
:1010B000F0B54F46D6464646C0B507002C4C616A8F
:1010C0000D00A66A616AA942FAD18B4208D805D000
:1010D0000120E0BCBA46B146A846F0BDB242F7D9FD
:1010E000EFF3108A72B6234801680029FCD0BFF3E1
:1010F0005F8F0125BD4020491D4C884609788946EF
:101100002943C9B28C46414660460870391D1B48C8
:10111000890065630A51B9000B50216A00202942F9
:1011200019D0616A0800A66A616A8142FAD18B42CD
:1011300019D801D1B24216D8CC4516D00C4B1F207D
:101140001D625D6301230740BB400D4A1E381360DA
:1011500043464A461A70BFF35F8F0022054B1A6060
:101160008AF31088B5E70020F5E70120F3E7C046D1
:1011700000400540280100D03A0A0220340900202E
:1011800080E200E0EFF3108C72B60A490B68002B86
:10119000FCD0BFF35F8F01238340074A07481362E7
:1011A00002789A430270BFF35F8F00230B608CF3C9
:1011B00010887047280100D0004005403A0A0220FC
:1011C00070B5050014001600002915D00C00002A87
:1011D00012D080686B689847296800280ED0730089
:1011E0009B196200033B1219CB18033A9C708818B4
:1011F0008A5C002A15D10670200070BD63001B199F
:101200007200033B9219CB18033A9E7088188A5CCF
:10121000002A02D104703400EEE75A7004703400E2
:10122000EAE75A700670E7E730B583600023CCB276
:1012300043730133047342608373C4730D00006809
:10124000012C06D9421C0133DBB2137003329C42DD
:10125000F9D1FF2129404B005918002340180338C9
:10126000437030BDF8B5CE46474606000C0080B549
:10127000002907D04D0003686D18033D5A195778AF
:10128000002F04D12000C0BCB946B046F8BD79009B
:10129000C919033988464344597889460021597051
:1012A000517073683A0021008068984733680028BD
:1012B00014D042469A18947059195B5D002B00D0E7
:1012C00053700F70270049463000FFF7CBFF3900FD
:1012D00002003000FFF774FF0400D3E742464146A6
:1012E0005D19AF709A185B5C002B00D06B701470A6
:1012F000E9E7C046F0B557464546DE464E46E0B5FE
:101300000D006B0001685B19DF1E0400C85D83B02F
:101310000192CA19002850D043001B18033BCB1878
:101320005E78B446002E1AD1019E002E42D0E67B94
:10133000002E04D073009B19CB18033B5D70A37B78
:10134000002B00D1A573E57300282FD10023537023
:1013500003B0F0BCBB46B246A946A046F0BD720041
:101360006244033A89184A78904600224A709146AE
:101370005A70010032002000FFF722FF43468246E8
:10138000002B07D05B0021684344033BCB185A78FD
:10139000002A16D1424651462000FFF711FF21686E
:1013A000019BCA19002BC2D10028CFD043001B18C3
:1013B000033BCB1800219970C8E7019B002BB6D1E5
:1013C000C4E7500080180338091848788346484617
:1013D0004870587041462000FFF7F2FE594680469B
:1013E0002000FFF73FFF414602002000FFF7E8FE24
:1013F0008046CFE7F0B557464546DE464E46E0B557
:1014000083B00191457B04006B0000685B19DF1E0F
:10141000C15DC219002952D04B005B18033BC318B1
:101420005E78B446002E1CD1019E002E44D0E67B8F
:10143000002E04D073009B19C318033B5D70A37B7F
:10144000002B00D1A573E573002931D100232800BA
:101450005370617303B0F0BCBB46B246A946A046C8
:10146000F0BD72006244033A801842789046002230
:10147000427091465A7020003200FFF7A1FE4346A9
:101480008246002B07D05B0021684344033BCB1806
:101490005A78002A17D1424651462000FFF790FEA5
:1014A000019B01002068C219002BC0D10029CDD0BA
:1014B0004B005B18033BC31800209870C6E7019BE4
:1014C000002BB4D1C2E750008018033809184878BF
:1014D000834648464870587041462000FFF770FE2A
:1014E000594680462000FFF7BDFE4146020020001D
:1014F000FFF766FE8046CEE770B5040000292CD0C9
:10150000437B8B422ED005684800401803382818CA
:101510008278002A21D053009B18033BEA5CEE1826
:101520008A4202D11BE0002A08D053009B18033BDB
:10153000EB185A788A42F6D142785A700023012279
:10154000837043702000FFF7D5FE617B020020000E
:10155000FFF736FE6073012000E0002070BD437885
:101560003370EBE701221900FFF7C4FE607301201E
:10157000F4E7C046F8B5CE464746040080B50620DD
:101580000E0000F023FA051E51D0524B5249E218CA
:1015900053425A418023DB039C4692054F4B6244E1
:1015A0001A604F4B1A6010008B689843FBD1494B6F
:1015B0008021E3185A4253414A4A5B00490099523C
:1015C000062000F003FA3100C00000F06DFBC309F3
:1015D00032D14022012190466162A362256BEB0764
:1015E00036D427008026E36A00232C3776013E4359
:1015F00033600620256300F0E9F94146800000F0E1
:1016000053FB236B05009846DB073BD46022E36A5B
:101610005A406E23134033604346236380231022D5
:101620009B013B431A60304B23630323A3642800D0
:10163000C0BCB946B046F8BD2C4A93423FD90023FE
:101640002B492C4A6162A362256B9046EB07C8D5F3
:101650002200C02330329B011343234A06201A6024
:10166000666AA26AB601B61800F0B0F9224900F025
:101670001BFBB6020100300000F016FB0021FFF753
:1016800097FCAEE72200C02330329B011343164A79
:1016900006201A60636AA26A9B019946914400F091
:1016A00095F94B4614499B02994600F0FDFA01005A
:1016B000484600F0F9FA0021FFF77AFCA6E77F22FE
:1016C0009901884610400130400819008044030009
:1016D00082E7C0460080FCBF00C0004000E0004040
:1016E00000F000404409002001030000FEFF00005C
:1016F000FFFF0000C0FF3F004E0E000030B50C2081
:1017000083B000F0B9F9FEF78FFE00280ED0994B98
:10171000994A1A605A609A60DA601A615A619A614D
:10172000DA611A62954A5A6203B030BD944CA067E0
:1017300000F0AAF90122934B1A60636C012BFCD1D3
:101740000322914B1A608E4A936B012BFCD101331B
:1017500001218E4A8E480093043300F03DF90523A1
:101760008C4A009301218C4800F036F98B4B5A6863
:10177000FF2A02D8802252005A6080227D4C824B80
:1017800021691201854D1A60002907D0606900F0B7
:101790008BFA431C5800C0180338FDD2E0217F4B60
:1017A00002201A681140802252012A4311601968F0
:1017B000484003210140116004219A681142FCD085
:1017C0008022802192012A43090111608022520067
:1017D0005A60734B2361734B5968FF2900D85A60D4
:1017E0000321684A6F4B116002399A681142FCD09C
:1017F000E0201A681040802252011A4310601868D5
:101800004840032101400220116066498A68104265
:10181000FCD0802292011343802212011A608022A0
:10182000614B52004A606361604B5968FF2900D8E0
:101830005A6080225E4BE16912015C4D1A600029FA
:1018400007D0606900F030FA431C5800C018033814
:10185000FDD2E02255490B681A4080235B012B43DF
:101860001A60802380229B012B4312011A60802280
:10187000414B52004A60E3614E4B5968FF2900D842
:101880005A6080224C4B216A12014A4D1A6000298D
:1018900007D0606900F008FA431C5800C0180338EC
:1018A000FDD2E02243490B681A4080235B012B43A1
:1018B0001A60802380229B012B4312011A6080232F
:1018C00080225B004B602C4BD20223623B4B596859
:1018D000914200D25A608022394B616A1201374D21
:1018E0001A60002907D0606900F0DEF9431C580037
:1018F000C0180338FDD2E02230490B681A4080231B
:101900005B012B431A60802380229B012B43120131
:101910001A608023DB024B60184B6362294B5A68C4
:10192000FF2A02D8802252005A608022264BA169E9
:101930001201244D1A60002907D0606900F0B4F943
:10194000431C5800C0180338FDD2E0221D490B6823
:101950001A4080235B012B431A60802380229B0165
:101960002B4312011A6080235B004B600E4BA36176
:10197000DAE6C0460C060020006CDC021BB7000053
:10198000008000403CB0004030B00040002F68595B
:1019900000800240008C864700C00240308000403A
:1019A000001BB7003C800040405973075480004042
:1019B00054B000406080004060B000406C80004047
:1019C0006CB000404880004048B00040014B8000AF
:1019D000C05870470C060020F8B5040021481D00CF
:1019E00017000E0000F060F90100380000F05CF90B
:1019F000069B29041B0319432368002B20DB1A4B89
:101A00001A4DE21853425A4180235B019C4612034F
:101A1000174B62441A60174B1A601700AB689F435C
:101A2000FBD1C022231D92011A4321232660A0600E
:101A300013602368002BFCDA0823E1601360F8BD13
:101A40003F2322681340B342D9D1A3681B051B0D65
:101A50008342D4D1EE22E368D20213408B42CED12E
:101A6000EDE7C046001BB7000040FDBF00C00040CE
:101A700000E0004000F000408023024A9B00034346
:101A8000D362704700800540AA23064A1B011360F9
:101A90002F230549D360054B19605368002BFCDAEE
:101AA0007047C0460040024000B0FA0000600240AB
:101AB0002C4B2D4A70B51A602C4A2D4B2D491A60BB
:101AC00014008B689C43FBD12B4D2C4EB54208D2A1
:101AD000013E761BB60808CD984723000134B34277
:101AE000F9D1FFF70BFE264A214B1A60214A936871
:101AF000DB43DB01DD09002BF9D14022214B224CD5
:101B0000224E9A675A671A67DA66B44208D2236887
:101B10002000002B20D00C34FEF768FEB442F6D330
:101B20001B4E1C4CC022A168300000F0C5FBA66013
:101B3000FEF7A4FCFEF732FEFEF7F2FF164C174E3E
:101B4000B44208D2013E361BB60808CC98472B0099
:101B500001359E42F9D170BD0834FEF739FEB4421A
:101B6000D5D3DDE700E00040BFCDFBFEFE7F3C00AB
:101B700000F0004000C000408002002090020020E1
:101B8000FFFFFF0100F001407002002080020020F2
:101B90000000002000ED00E09002002098020020EC
:101BA00000BEFDE710B5FFF7FBFFC0460FB400B560
:101BB000084883B000F0B2FC049B002B07D005A9B5
:101BC0001800019100F01EF8034800F0A7FC012066
:101BD000FFF7E6FF744800108448001010B5014874
:101BE000FFF7E4FF8848001010B50148FFF7DEFF5B
:101BF0009848001010B5002800D110BD00F042FC3C
:101C0000FBE7C04610B5094A0300146884B0002CF5
:101C100008D0012200910648524203A9A0470120A2
:101C200004B010BD00F07AFC0020F9E77C0600202B
:101C3000F51B001001480421014B18473002002019
:101C4000651C0010142310B50100188804331B888C
:101C5000984710BD162310B50100188802331B8861
:101C6000984710BDF8B54746CE4680B50F1E19D02F
:101C700014239946043304000025012698464B4658
:101C80001888434621681B88984701C4431E984121
:101C9000013540420640AF42F1D13000C0BCB946E8
:101CA000B046F8BD0126F8E7114A936F9B0813D29E
:101CB00010665166002905D0FFE7FFE7FFE7516F87
:101CC000106F704704B5002801D00020C04302F017
:101CD000A3FD002104BDC046F0B5146E556E576FCC
:101CE000166FFFF7E5FF1466556657671667F0BD78
:101CF000000000D094464A4A926F9208624601D290
:101D000028E0C046F0B5464E346E756E776F366F7C
:101D100000F020F89446424A1466556657671667E5
:101D20006246F0BD94463E4A926F9208624601D2E6
:101D300054E0C046F0B53A4E346E756E776F366F2C
:101D400000F04CF89446364A146655665767166795
:101D50006246F0BD002B24DB11D000293EDA00B52D
:101D6000C943404200D1013100F038F8C943404234
:101D700000D10131DB43524200D1013300BD002AC2
:101D8000EBD1002801D1002905D00020C90FC907D7
:101D900001D1C043410800B502F036FD0022002306
:101DA00000BD00B500290ADBDB43524200D10133FC
:101DB00000F014F8C943404200D1013100BDC943CD
:101DC000404200D10131DB43524200D1013300F0E7
:101DD00005F8DB43524200D1013300BD002923D175
:101DE000002B18D1002A0CD0BC460D4F38667A66FD
:101DF00000210023FFE7FFE7FFE77A6F386F6746B0
:101E00007047002801D00748010000B502F0FCFC33
:101E10000022002300BD02000B00002000217047BB
:101E2000000000D0FFFFFFFF002B00D0BFE0130C2D
:101E300028D1002AE7D080B4114F39667A66FFE7CF
:101E4000FFE730B4040C7B6F396F1B0423433B6600
:101E50007A66FFE7FFE7FFE7C04684B27B6F3D6F1E
:101E60001B0423433B667A66FFE7FFE7C046002377
:101E70002C042D0C7A6F386F00196941B0BC704783
:101E8000000000D0F0B594460025140E01D11202D6
:101E90000835140F01D112010435940F01D19200BD
:101EA0000235D40F01D152000135D40B0134254F36
:101EB0007C66254C3C660E0C93B2FFE7FFE7FFE71C
:101EC0003C6F6643360C7703BE467343DF0B5B04FF
:101ED000C01AB941130C7343DB18C91ACE08664304
:101EE000360CB64493B273431F0F1B01C01AB9419D
:101EF000130C73431F0B1B05C01AB941860D8F02CB
:101F00003E436643360C092D24DB520A7243801A85
:101F10007703460A6643360C16235B1BDE40DF4020
:101F2000BF1964466643821B7046043506330100C0
:101F3000D940A840C01900D30131A24206D20023E3
:101F4000F0BD0000000000D0FFFFFFFF121B0130BA
:101F5000F3D3F1E709277F1BFE406446A2B2724328
:101F6000801A00D20139220C7243130C1204821A17
:101F700099410B007046043513370100F940A84021
:101F8000801900D30131002B02D1A2420AD2F0BD48
:101F9000013000D30131121BFAD2013BF8D1A24229
:101FA00000D2F0BD013000D30131121BF7E7F0B5CC
:101FB0001C0C00D080E00CB400251C0A04D11B02CC
:101FC000160E3343120208351C0B04D11B01160FE9
:101FD0003343120104359C0B04D19B00960F33430D
:101FE00092000235DC0B02D192185B4101351C00D6
:101FF000971864410134464F7C66464C3C660E0C93
:10200000FFE7FFE7FFE7C0463C6F6643360C770308
:10201000BE4697B27743C01B00D20139C01B00D225
:1020200001399FB27743C91BC91B170C77437E0444
:10203000FF0B801BB941CE086643360C0C2D33DBF9
:10204000B644120B1F053A431B0B97B27743C01BD4
:1020500000D201399FB27743C91B170C77433E0466
:102060003F0C801BB941860D8F023E4366432927F2
:102070007F1BFE400C3D7746AF40BF1930BCA2B27B
:10208000ABB272437343801A9941220C7243130C12
:102090001204801A994102000B000137001BA9416C
:1020A000F9D2781E0021F0BD0C277F1BFE40774639
:1020B0007F0BAF40FF19E0E700245D1C07D0144FF1
:1020C0007D663966FFE7FFE7FFE7FFE73C6F95B204
:1020D0009EB265436643401BB141150C1E0C65431F
:1020E000664336042F0C3E432D04401BB1419942F8
:1020F00004D202000B0020000021F0BD01D190426B
:10210000F7D3801A994101349942F2D3F6E70000DF
:10211000000000D0FFFFFFFF132370B51D78012DD5
:1021200015D010DD1C48FFF795FD1C4C01008022E6
:10213000200000F0C1F8022D06D01948FFF782FDFB
:10214000184B186070BD154C174BA364F5E7164B80
:10215000124C23606360A360E36023616361A36149
:10216000E36123626362A362E36223636363A36345
:10217000E36323646364A364E36423656365A36525
:10218000E36523666366A366E36623676367A36705
:10219000E367A364D1E7C0465344000098030020DE
:1021A0004C3300002C090020AD21001007B560461B
:1021B00001880A0A0230DF2AFAD1C9B2820804D3A0
:1021C000028840880004104300E00068014A505033
:1021D000039007BD9803002051434343C9188C4620
:1021E000110C83B24B4310B4040C614392B280B221
:1021F000504362431C041B0C001910BC59411304CA
:10220000120CC0185141614470470000132310B5EF
:1022100012481C78FFF71EFD0100012C0AD003DDD7
:1022200080220F4800F048F80E48FFF70BFD0E4BD8
:10223000186010BD0A4C5422200000F03DF80B4BF2
:102240006365A365E36523666366A366E366236748
:102250006367A367E3672362E361E5E75346000032
:10226000980400204C3300002C090020712200103B
:1022700007B5604601880A0A0230DF2AFAD1C9B2DE
:10228000820804D3028840880004104300E00068FC
:10229000014A5050039007BD9804002001480421D2
:1022A000014B184740020020651C0010014B1B68C1
:1022B0001847000040020020014B5B6818470000EF
:1022C00040020020030010B5080011001B68984769
:1022D00010BDC046F0B546464F46D646C0B5437D14
:1022E00080460E001700002B46D0002A3FDD4B1E13
:1022F0009946244B0125002400209A460DE04B46C8
:102300001B5D0D3B5A425341325DDBB20A2A0BD0B2
:102310002B00013401359F421ADD002CEFD14346DA
:10232000325D1B7D0A2AF3D1002BF1D1A04204DAE1
:102330004346211A1B6830189847434650461B688D
:1023400002219847013428002B0001359F42E4DC2C
:10235000874204DD4346391A1B6830189847F6193E
:10236000013E33780D3B5A42534142461375E0BC5F
:10237000BA46B146A846F0BD036811003000984740
:10238000F5E7C04604490010F0B5DE4657464E4614
:102390004546E0B585B017001C0006000D00FEF7AD
:1023A000FDFD0023304A12184B41002B58DB2F490A
:1023B00008008A4602F038FA01906B1C03D1300005
:1023C00002F0E8F90500002C25D1294B9846294B4D
:1023D0001C68002C15D0002F20D1274F02E0246963
:1023E000002C0ED02368002BF9D03B68002B01D0C5
:1023F000A342F4D120002A003100C0472469002CF8
:10240000F0D1019B002B27D105B0F0BCBB46B246F2
:10241000A946A046F0BD194B9846D8E7164B9946F9
:1024200002ABDF1D0A239B4602E02469002CE8D0A2
:102430002368002BF9D04B461B68002B01D0A34228
:10244000F3D12A0031002000C0475B460122390049
:1024500020003B70C047E8E7504602F0CDF9D3E7D3
:102460000122074B5242A2E740420F0078020020AF
:10247000D52200107406002078060020C522001026
:10248000FFFFFF7FF0B5CE46474680B583B06B4671
:102490000600DD1D2870FEF781FD00231A4A121880
:1024A0004B41002B2BDB19490800884602F0BCF990
:1024B000174B81461C68002C14D0164F02E024698B
:1024C000002C0FD02368002BF9D03B68002B01D0E3
:1024D000A342F4D1200001222900FFF7FBFE24696A
:1024E000002CEFD14B46002B05D1300003B0C0BC0F
:1024F000B946B046F0BD404602F07EF9F5E701224C
:10250000054B5242CFE7C04640420F007802002000
:102510007406002078060020FFFFFF7F70B50400DE
:1025200002F038F900230100050001222000FFF726
:102530002BFF084B1C68002C06D06368002B05D0CD
:1025400098472469002CF8D1280070BD2469002C1C
:10255000F3D1F9E7740600200A4A1368002B05D16D
:102560000CE01A001B691032002B07D09842F8D1FA
:10257000002902D103691360016170470029FCD072
:102580001060FAE77406002010B500F0C5F80120CD
:1025900010BDC046F0B50D1E15DD0E4B0D271A6897
:1025A0000D4B4519D31859424B410C495B005E5EF7
:1025B00020210478A64207D093691942FCD101304A
:1025C0001460A842F5D1F0BD93691942FCD117609F
:1025D000F2E7C046480900200080FCBF4409002003
:1025E00030B504000D1E26DD002010211B4B013CE0
:1025F0001A689369194219D1013093691942FCD1C3
:10260000136823548542F4D1154B1B68002B0CD062
:1026100050239363516B183B34320B4011008022DE
:1026200052010A431360002815D030BD0C4B1B68C3
:10263000002BEDD1F7E70A4B1B68002B0BD0502283
:102640003821064B1B689A635A6B34331140802241
:1026500052011343196003204042E6E74809002075
:1026600004060020064B10B51B68002B06D0002185
:10267000044A12689163044A1068984710BDC04626
:102680000406002048090020080600201D4BF0B574
:102690001A68C64698461C4B0E00D31859424B4147
:1026A0001A4F14331C00050000B53B68002807D002
:1026B000002B11D0164B3D601E6080BCB846F0BDAB
:1026C000002BF7D0906300212000FDF7F1FE2000E1
:1026D0001049FDF731FFEDE720000E49FDF702FF3D
:1026E00001212000FDF7E4FE4346502238211B68FB
:1026F0009A635A6B3433114080225201134319609C
:10270000D8E7C046480900200080FCBF040600202E
:1027100008060020652600100C4B10B51B780C4BEA
:102720000C4C1B780C4B022100202360FDF746FE69
:1027300002210120FDF742FEE12120684902FEF757
:1027400019FF01210548FFF707FF10BD9C49001044
:10275000A04900104809002000400340500200201A
:102760007047C046000000000000000000000000AC
:102770000B4A13681868203080F30988022080F320
:102780001488BFF36F8F3FBCAE4608BC04BC62B672
:102790001847C046C046C046C046C046C046C046B0
:1027A0009006002000000000000000000000000073
:1027B000EFF30980164B1A6820381060F0C04446C9
:1027C0004D4656465F46F0C00D221207146E556EF8
:1027D000566F176F3038F0C008B572B601F03AFA8C
:1027E00062B60CBC116808681030F0C8A046A94653
:1027F000B246BB4680F309880D2212073038F0C874
:102800001466556656671767F0C81847C046C04635
:102810009006002010B5FFF7E1F9C04610B58024FE
:10282000031F64041C60043B19600349043B1960E6
:10283000143B40381A6010BD152800108022044B4C
:1028400052051A60BFF34F8FBFF36F8F7047C046BA
:1028500004ED00E072B6044A136801331360BFF35D
:102860004F8FBFF36F8F704750090220094A1368DA
:10287000013B1360002B0CD1074A1168002907D0D7
:1028800006480068BFF35F8F0B6080F31088136009
:1028900062B6704750090220280900204C09022026
:1028A000EFF3108072B6704780F310887047C0460F
:1028B00010B5FFF7F5FF040001F0BAF9002803D0C6
:1028C0008022034B52051A602000FFF7EDFF10BD78
:1028D00004ED00E0002310B5084A094C05202360F0
:1028E0001360FFF773F8FA218900FFF7DDF9054B54
:1028F000013818600723236010BDC04618E000E0CF
:1029000010E000E014E000E0FF22154B120419680B
:1029100010B50A431A60FF220220196812060A4302
:102920001A601049404201F029FE01200E49404240
:1029300001F024FE05200D49404201F01FFEFFF783
:10294000C9FF00220A4B1A60D0231B061A68094BE4
:102950001A70FFF70DFF01F07DF9FFF73FF9C04650
:1029600020ED00E0B1270010B12800106127001011
:102970005009022068020020D02310B51B061868F9
:10298000074B1B78834200D010BDEFF30583002B6B
:1029900002D05B00C018F7E701F0A2FBF4E7C046E5
:1029A0006802002000B5144B83B01A78D0231B06B0
:1029B0001B689A4209D00368BFF35F8F00221A6038
:1029C00081F3108820BF03B000BD03680B4A136079
:1029D0000B4A11600B4A0221944663449B10FF315D
:1029E0009940094B0122186801235B420093090AB0
:1029F000002300F025F9E6E76802002028090020FE
:102A00004C09022000FFFF2FB809022000B51C4A24
:102A10000B001178D0221206126883B0914209D0BF
:102A200040BF0268BFF35F8F0021116083F31088FD
:102A300003B000BD02210068124AFF3182189210D3
:102A40009140090ABFF35F8F0022026083F3108870
:102A5000EFF30583DBB2002B0DD00B4B019218680E
:102A600001AA00F091F9019B002BE1D08022074BD5
:102A700052051A60DCE7044B186800F03DF9D7E70F
:102A80006802002000FFFF2FB809022004ED00E0DB
:102A9000F0B5CE46474680B51D00344B14001A7879
:102AA000D0231B061B688146884683B09A420FD00C
:102AB0000368BFF35F8F00221A6081F31088200043
:102AC0002900FEF797F903B0C0BCB946B046F0BD87
:102AD000FEF764FA22002B000127121A8B41244EC4
:102AE0007F42B6185F41002F20DC1BD04B461B688D
:102AF000BFF35F8F00221A6088F310881D4B5A6A5B
:102B0000954205D89B6A0120A342DCD29542DAD1D6
:102B10008022194B52051A60BFF34F8FBFF36F8F9E
:102B20000020D0E7FA239B009E42DFD3FA22002345
:102B3000300039009200FFF7DDF8031ED6D04A4678
:102B4000404612680D490A600D4908600D498C46DF
:102B5000022162449210FF3191400B4A090A106829
:102B600000930122002300F06BF8C7E76802002001
:102B700018FCFFFF0040054004ED00E0280900209C
:102B80004C09022000FFFF2FB809022010B500F009
:102B90004BF8014B186010BDB8090220F8B5DE46AD
:102BA00057464E464546E0B505000F00060000F0CA
:102BB00065FF29682C6939430C362960A6422AD062
:102BC000002398468023DB049B4680235B049A46BF
:102BD00080239B0499460EE00B420AD057463A42A6
:102BE00002D042461A4390464B46194301F0E0F9A1
:102BF0002968A6420DD020005F460268646813026F
:102C00001B0A3A42E8D01F000F40BB42E6D0A64262
:102C1000F1D143469943296000F038FFF0BCBB4630
:102C2000B246A946A046F8BD10B51C2001F0CAFC6A
:102C3000041E03D0002308C000F0B0F8200010BD2F
:102C4000F0B5C646060000B50D0090461F0000F026
:102C500015FF3468002F0AD125420CD04346002BC3
:102C60000CD02300AB43336000F010FF08E02B00D2
:102C700023409D42F2D0069B002B05D100F006FFB9
:102C8000200080BCB846F0BD4346002B16D1802101
:102C90000023C904002F00D11900069A2943301DD2
:102CA00001F05AF800F0F2FE00281CD001F050FAB2
:102CB0000400830107D52402240AE1E7A021802330
:102CC000C9045B04E6E7FFF7C5FD3468002F0DD1AA
:102CD0002C4205D04346002B02D02300AB43336087
:102CE000FFF7C4FDE7E7FFF7A9FDDFE723002B406F
:102CF0009D42F5D1EEE7C046F8B5DE4657464E4652
:102D00004546E0B505000F00060000F0B7FE296853
:102D10002C6939430C362960A6422AD000239846F4
:102D20008023DB049B4680235B049A4680239B041C
:102D300099460EE019420AD057463A4202D042461E
:102D40001A4390464B46194301F032F92968A642CE
:102D50000DD020005F460268646813021B0A3A42E5
:102D6000E8D00F001F409F42E6D0A642F1D1434673
:102D70009943296000F08AFE2868F0BCBB46B24641
:102D8000A946A046F8BDC04610B513000A000100D0
:102D9000014801F0DFFB10BD9D2B0010030008333C
:102DA00001224360C36003610023524282600360DA
:102DB0007047C046002303617047C046030030B52A
:102DC0000C680833621C0DD01A005B681D68A542B0
:102DD000FAD94B60996003688A60013351600861D9
:102DE000036030BD02695368F3E7C0460369416878
:102DF00082688A6051605968814206D0002202616F
:102E00001A68013A1A60186870475A60F6E7C046B7
:102E1000F0B5DE464E4657464546E0B585B006005D
:102E2000FFF718FD4523F45C64B2002C21DD213B43
:102E3000994621339B46B14409E0AB6BEA6B03969C
:102E4000934245D3013CE3B264B2002B11D0B56C80
:102E5000002DF2D1736A002B0BD0484601F03CF8EC
:102E60000028EFD001F036F9013CE3B264B2002B48
:102E7000EDD14523FF22F254FFF7F8FCFFF7EAFCFF
:102E80004423F45C64B2002C16DD3500103504E0F8
:102E9000013CE2B264B2002A0ED03369002B0BD0A1
:102EA000280001F019F80028F2D0013C01F012F9D5
:102EB000E2B264B2002AF0D14423FF22F254FFF7B9
:102EC000D5FC05B0F0BCBB46B246A946A046F0BD55
:102ED0005B462A6CEF5CAB6B7FB29846002A13D13D
:102EE0002B680193002B30D000239A4643460133D0
:102EF000AB637B1C17D16B6A002B1DD15346002B93
:102F0000A0D001F0E7F8AFE7686803A9FFF7D4F9AC
:102F10002A6C6B689446AA6863446B609342E3D35F
:102F20002B686B60E0E700F07DFEB842E6D95B46B7
:102F300001377FB2EF54E1E72800243000F0CCFFE6
:102F40000028DBD001F0C6F88EE7A86801F0CEF8C3
:102F5000019B8246AB60C9E7F0B5C64600B5846CFC
:102F600082B0A36BE26B00250190934204D328004A
:102F700002B080BCB846F0BD4523226CE65CA76B6E
:102F800076B2002A1CD0606801A9FFF795F9226C7F
:102F900063689446A26863446360934214D32368D1
:102FA00063600137A763731C13D1636A002BDED003
:102FB0002000243000F090FF0028D8D00125D6E76B
:102FC00023689846002B0DD001370025A763731C9A
:102FD000EBD000F027FE8642C9D24523013676B2F7
:102FE000E654C4E7A06801F081F843460500A360F9
:102FF000D7E7C046F8B505000E001700002846D0F8
:103000000B0C020C002B34D1331C002A35D13000BC
:103010006843030055333AD8543001F0D3FA041E04
:1030200035D00300002E00D054332360E5632664BE
:10303000FFF710FC216CE36B22684B43D0185B1A3E
:10304000D3186260E3600025FF234422A0602000C3
:10305000A563A3540132A3541030FFF79FFE200054
:103060002430FFF79BFEFFF701FC5023E754A564D3
:103070000EE0002A0BD11A1C031CB0B2A9B24143C6
:1030800098B293B24343090C5B181B0CBFD00024C9
:103090002000F8BDF8B54E46DE46574645460400CA
:1030A000E0B591461D000F00FFF7FAFBA36BE26B42
:1030B000060093423AD3022D0AD000243000FFF7D5
:1030C000F3FB2000F0BCBB46B246A946A046F8BDC3
:1030D0004523E35C226C5BB29846A36B9B46A36BD3
:1030E0009A46002A2DD03900E068FFF7E5F8E1683C
:1030F000236C5A42CB1A2168E3608B4203D2A36847
:103100009C466244E2605346022D54D00133A363CF
:10311000434601331ED000F085FD80452DD2434645
:10312000452201335BB2A3540124C7E74523E35C86
:10313000226C5BB29846A36B9B46A36B9A46002A0F
:103140001DD12768002F3AD053460133A36343466D
:103150000133E0D1A36C002B22D0022D02D15B46BB
:10316000002B0AD12000FFF7F7FE002805D04B46C0
:10317000002B02D001234A46136001249EE7002D54
:10318000B1D139006068FFF797F8226C6368944604
:10319000A268634463609342D6D323686360D3E735
:1031A000636A002BE9D02000243000F095FE00284F
:1031B000DDD1012482E7002BC8D10133A7E7A06845
:1031C00000F094FF5346A7600133BFE7F0B54746D0
:1031D000CE46040080B585B088460192FFF73AFBE1
:1031E000A76B002F5ED1019B002B3BD002A800F003
:1031F0002BFF0023442699464525FFF737FB00F0B7
:103200003DFCFFF727FBA35D5BB2013301D14B46C9
:10321000A355635D5BB2013301D14B466355FFF7A4
:1032200025FB01A902A800F01BFF002822D1FFF70F
:1032300011FBA36B002B2AD1FFF718FB200001998B
:10324000243000F03DFD2000FFF7E2FD00F01EFC01
:10325000002824D0FFF7FEFAA76B002F22D1019B94
:10326000002BCAD1FFF702FB002005B0C0BCB94655
:10327000B046F0BD2000FFF7CBFD00F007FCFFF7E4
:10328000E9FAA36B002BEDD0FFF7F0FAE2E7FFF7C6
:10329000EDFA2000FFF7BCFD00F0F8FBDAE7FFF7DE
:1032A000CDFAD7E7226C002A08D0E3689918A36802
:1032B000E16099420BD24046FEF7FEFF013FA76353
:1032C0002369002B06D1FFF7D1FA0120CDE7216851
:1032D000E160F0E72000103000F0FEFD0028F2D0A1
:1032E000FFF7ACFAEFE7C04670B500290ED0002614
:1032F0000023374DDA00AC186468844259D0002EA0
:1033000005D00133082BF5D13160706070BDAC5829
:10331000002C4BD05C1C072BF8D0E200AE1876686E
:10332000B04246D0AE58002E47D09C1C062BEDD0A4
:10333000E200AE187668B0423BD0AE58002E3CD0CA
:10334000DC1C052BE2D0E200AE187668864230D055
:10335000AE58002E31D01C1D042BD7D0E200AE1881
:103360007668B04225D0AE58002E26D05C1D032BC7
:10337000CCD0E200AE187668B0421AD0AE58002E1B
:103380001BD09A1D022BC1D0D4002E197668B042F2
:103390000ED02C59002C13D0012BB7D0EB6B9842D8
:1033A00012D0AB6B002BB1D107233822AE18A8E79F
:1033B000D200AE1831607060A8E72300AE18A0E715
:1033C0001300D200AE189CE73822AE18F2E7C046D0
:1033D0009805002070B5040016000D00FFF73AFABA
:1033E0004422A35C5BB2013301D10023A3544522E4
:1033F000A35C5BB2013301D10023A354FFF736FA7B
:10340000A36B002B03D02000FFF702FD70BD20004E
:1034100032002900243000F0FDFCF4E7F0B5C64688
:10342000124B00B59846124D124F134E14E0FFF7A1
:1034300011FAFB68DC68201DFFF7D8FC3368013BFC
:1034400033602B68013B2B60FFF710FA206B01F013
:103450005BF9200001F058F92B68002BE7D14346B7
:103460001B68012BF8D9FFF7E9F9F5E7A80600205A
:1034700058090220140A022054090220F0B55746C8
:10348000DE464E4645465C4BE0B51F6883B00137CB
:103490001F60002F64D0594B9B465B461B689F42C0
:1034A00076D3574B9C461B681B68002B00D196E0D7
:1034B00000230093534B544D9A4600239846534B98
:1034C0000197994639E04146596111680139116007
:1034D0009A6A002A0FD0D969186A56688860186AF3
:1034E0004160190018318E4200D176E04146996260
:1034F0001168013911604A46D96A1268914201D9AE
:103500004A4611608A0052189200AE1870688768A7
:103510009860DF6087687C6084605E61AB580133CF
:10352000AB5053461B68DB6A994201D901230093D3
:1035300063461B681B68002B56D063461B680199C5
:10354000DB68DB685A68914253D35A699868D96836
:103550001C1D816048605068A042B4D15160B2E740
:10356000274B2B4A196810681860116029490A68AE
:1035700001320A601A681268002A27D11F4B9B4645
:1035800001235A465B4213605B461B689F4288D208
:10359000002300931B4B1C4D9A4653461B68DA6A66
:1035A00093009B189B00EB58012B01D9012300933A
:1035B000194B1B68002B01D001230093009803B026
:1035C000F0BCBB46B246A946A046F0BD1B680B4AFC
:1035D000DB6893461B6813605FE7506086E7002353
:1035E0000093084B084D9A4601235A465B421360EC
:1035F000D3E75B461A60D0E7280A0220CC090220F4
:103600009806002090060020A806002064090220E9
:10361000A0060020D0090220340A0220F8B5CE46C8
:103620004746960080B5804630000D00994600F070
:10363000C9FF071E00D1CEE0702000F0C3FF041EBA
:1036400000D1CFE070220021FEF730FE3200A5212C
:1036500038002763FEF72AFE236B043E9C460723AF
:1036600066449E43002D5FD034232A78E2542B78A1
:10367000002B56D035236A78E2546B78002B50D05B
:103680003623AA78E254AB78002B4AD03723EA7865
:10369000E254EB78002B44D038232A79E2542B797A
:1036A000002B3ED039236A79E2546B79002B38D055
:1036B0003A23AA79E254AB79002B32D03B23EA7942
:1036C000E254EB79002B2CD03C232A7AE2542B7A5B
:1036D000002B26D03D236A7AE2546B7A002B20D04F
:1036E0003E23AA7AE254AB7A002B1AD03F23EA7A1F
:1036F000E254EB7A002B14D040232A7BE2542B7B3C
:10370000002B0ED041236A7BE2546B7B002B08D048
:103710004223AA7BE254AB7B002B02D04323EA7BFB
:10372000E25443230022E254089D1F2D60D8271D38
:103730003800E562E564FFF73DFB20001830FFF735
:1037400039FB20235D1B4A46414630002461A561B8
:103750006462FFF763F8099B2060002B00D01C60B7
:10376000FFF778F8404A414E13680133136033681D
:10377000002B48D03E4D2B68002B3BD03D4BE16ADF
:1037800098463D4B1A6801321A603C4B62641A68D5
:103790008A4200D2196042468B005B189B00D11808
:1037A0004A689068A260E06090684760976042460F
:1037B00061614146D2580132CA50FFF757F82B6871
:1037C0000125002B09D03368DA6AE36A9A4204D2F1
:1037D000FFF734F801E001256D422800C0BCB9466E
:1037E000B046F8BD0125380000F08EFF6D42F4E7C9
:1037F0001F259CE73368E16ADB6A8B4200D834609E
:103800001C4B9846BDE734601368012B04D0194B5C
:10381000E16A9846164DB4E7164B98461D00A02362
:103820009B004344994628001435FFF7B7FAA94591
:10383000F9D1134B99461800FFF7B0FA114D280043
:10384000FFF7ACFA1048FFF7A9FA1048FFF7A6FAFD
:103850000F48FFF7A3FA4A460E4BE16A1A600E4B77
:103860001D60034D8DE7C0465409022090060020DC
:10387000F4090220A8060020600902206409022041
:1038800090090220A4090220E0090220140A022063
:10389000000A022098060020A0060020F8B580202B
:1038A000CE464746C00080B500F08CFE051E78D09D
:1038B000702000F087FE041E00D178E07022002105
:1038C000FEF7F4FC8022A52128002563D200FEF734
:1038D000EDFCFF239B009C460723256B38226544A3
:1038E0009D43534B261D63630023A3540B32A35403
:1038F0003000E362E364FFF75DFA20001830FFF761
:1039000059FA202300224B49A361280024616462F4
:10391000FEF784FF484B20601C60FEF79BFF474A80
:10392000136801331360464B98461B68002B4CD03C
:10393000444D2B68002B3ED0E16A434F434B1A683D
:1039400001321A60424B62641A688A4200D21960DE
:103950008B005B189B00F9184A689068A260E060D1
:10396000906846609660FA5861610132FA50FEF73D
:103970007DFF2B68002B05D043461B68DA6AE36A9B
:103980009A422BD300F0A0FD01280AD172B6012281
:10399000304B52421A6000222F4B28601A60FEF70B
:1039A000B3FF2E4B1B68C0BCB946B046F8BD28001B
:1039B00000F0AAFEF5E743461B68E16ADB6A8B422A
:1039C00001D843461C60204FB8E743461C6013688B
:1039D000012B06D0E16A1C4F1A4DAFE7FEF72EFF10
:1039E000D0E7A023184F9B0099463D00B94428001A
:1039F0001435FFF7D3F94D45F9D1194B9946180005
:103A0000FFF7CCF9174D2800FFF7C8F91648FFF764
:103A1000C5F91648FFF7C2F91548FFF7BFF94A463E
:103A2000144BE16A1A60144B1D60064D86E7C046D0
:103A300049444C451D340010C0090220540902209D
:103A400090060020F4090220A80600206009022048
:103A500064090220CC090220280A02206C020020FE
:103A600090090220A4090220E0090220140A022081
:103A7000000A022098060020A0060020024A1368CF
:103A8000013313607047C0465C090220F0B5DE4682
:103A9000454657464E46E0B583B0FEF7DBFE544D33
:103AA0002B68013B2B602B68002B62D1514B1B68AC
:103AB000002B5ED0504B98461B68002B00D195E040
:103AC0004E4B4F4E99464F4B4F4F9A4600239B46C5
:103AD00001964346DB68DB68D869196A9A6A816097
:103AE0004860180054681830844200D17CE0594680
:103AF00099621168013911605A699868D9685468E7
:103B000081604860181D84426CD0116801391160D1
:103B10004946DA6A09688A4201D949460A60910031
:103B2000891889008C467C1861688E689960DE600F
:103B30008E68706088605C6163466146FB58013343
:103B40007B5053461B68DB6A9A421DD30123019ABE
:103B5000136043461B68002BBBD12C4B16001A6820
:103B60001268002A1AD01B68DB681A68284B1A6092
:103B700017E00024FEF77AFE200003B0F0BCBB463D
:103B8000B246A946A046F0BD43461B68002BA0D113
:103B90001E4B019E1A681268002AE4D11C4B013AA0
:103BA0001A601C4F3C68002C15D00123984608E091
:103BB000FFF764FC002801D043463360013C002C31
:103BC00008D02B68002BF3D03B68013C01333B60ED
:103BD000002CF6D13C603368002BCAD0FEF72EFED5
:103BE0000124C7E7516090E7516080E7044ED8E7B1
:103BF0005C09022054090220E00902206409022025
:103C0000340A022090060020A80600209806002012
:103C1000CC090220DC090220014B18687047C0461D
:103C2000280A0220014B18687047C0465409022038
:103C3000064B10B51B68002B02D1FFF71FFC10BD0F
:103C4000034A0020136801331360F8E75C0902207F
:103C5000DC090220154B30B51B68002B03D0012274
:103C6000134B1A6030BD124A124C1360236812487D
:103C700000E0013B9900CA1892008258002AF8D04F
:103C8000C918890045186A680831526841186A6085
:103C90008A4204D0D168094A11602360E2E7526881
:103CA000D1686A60054A11602360DBE75C09022085
:103CB000340A022064090220A80600209006002091
:103CC00070B51F4D0C0029681831FFF777F81D4BB0
:103CD00000211E686D232A682868D1540430FFF73C
:103CE00085F8631C17D02B68A4195C60A64206D91E
:103CF000154B186829680431FFF760F870BD134B45
:103D0000186829680431FFF759F8114B1A68944272
:103D1000F4D21C60F2E70F4B29685A6890688A60F9
:103D20002968C860296890680431416029680431B5
:103D300091602A6853611A6801321A60DEE7C04652
:103D400090060020280A0220A006002098060020E5
:103D5000CC090220000A0220802370B5274C1500F0
:103D60001B0622680B439361436822689968D361FC
:103D7000226811622268996818324A60226800211C
:103D800018329A60236898620368013303601C4B01
:103D90001E686D2322682068D1540430FFF726F88E
:103DA0006B1C17D02368AD195D60AE4206D9154B68
:103DB000186821680431FFF701F870BD124B1868CC
:103DC00021680431FEF7FAFF104B1A689542F4D2CD
:103DD0001D60F2E70E4B21685A6890688A6021687E
:103DE000C8602168906804314160216804319160A5
:103DF000226853611A6801321A60DEE790060020DB
:103E0000280A0220A006002098060020CC090220E3
:103E1000000A022070B52A4C43680D0021689E6894
:103E2000CB6121680E6221689E681831716021683B
:103E30001831996023689862036801330360214B4D
:103E4000002A1CD01B6800216D2322682068D154F1
:103E50000430FEF7CBFF1C4B21685A6890688A60DB
:103E60002168C8602168906804314160216804318C
:103E70009160226853611A6801321A6070BD1E6831
:103E80006D2321682068CA540430FEF7AFFF236811
:103E9000AD195D60AE420BD80C4B18682168043137
:103EA000FEF78CFF0A4B1A689542E7D21D60E5E7E2
:103EB000084B186821680431FEF780FFDEE7C04632
:103EC00090060020280A0220000A022098060020FE
:103ED000CC090220A0060020C368F0B5DB68D869D1
:103EE000196A9A6A816048601800546818308442E0
:103EF00045D000219962116801391160264A126883
:103F0000002A2CD19968D8685A698860D8681D1D24
:103F100041605168A94234D01168013911601F4ACB
:103F2000D96A1068814228D88A001D4C5218920024
:103F3000A618706887689860DF6087687D60856014
:103F40005E61A3580133A350164B00201B68DB6A47
:103F50008B4203D20122144B01301A60F0BD134A88
:103F600051688C68D9611C628C68606088601168D7
:103F70009A6201311160D96AE6E71160D4E75160B5
:103F8000B7E71168506001391160044AD96A1068B6
:103F90008142C9D9F1E7C0465C09022064090220C8
:103FA000A806002090060020340A0220E009022022
:103FB00080231B06F0B50B438468416802690360E7
:103FC000C3688C60846861605168814230D0002190
:103FD00001611168D8680139116099685A6988606F
:103FE000D8681D1D41605168A94223D0116801396C
:103FF0001160114AD96A1068814200D911608A00A3
:104000000E4C52189200A618706887689860DF609E
:1040100087687D6085605E61A3580133A350084BBB
:104020001B68DB6A994202D90122064B1A60F0BD77
:104030005460CCE75060D9E764090220A80600204C
:1040400090060020340A0220034B1B680360034BD8
:104050001B6843607047C046D0090220280A02202E
:10406000F8B50E000700FEF7F5FB6D23164C174A56
:1040700021681568ED5C002D07D00021012412682D
:10408000D154FEF7F3FB2000F8BD33685A1C19D059
:104090000F487A68844605683868A84205D08A4285
:1040A00003D8002301243360EBE78D1AAB42F8D923
:1040B0005B1A9B18336063461B683B6023680024CF
:1040C0007B60DEE70024DCE7280A0220900600205F
:1040D000D00902200122014B1A607047340A0220E5
:1040E000014B18687047C0469006002070B5041E4A
:1040F00008D0036DC26AC16C013B03658A4201D0DE
:10410000002B01D0002070BD051D2800FEF76EFEBB
:104110002023E26C9B1AA3610B4BE26219688A426E
:1041200000D91A60930009499B189B00C81842687F
:104130009668A260E660966875609560CA5860618E
:1041400001320120CA50DEE764090220A8060020DF
:10415000044B1A68196890691A682023C96A5B1AA7
:104160009361704790060020D24BF0B5DE4657466B
:104170004E4645469846D04BE0B59946CF4B89B060
:104180009A46CF4B9B4643461B681C68002C00D1C7
:10419000C4E0DB681C68FFF771FCFFF73DFD4B4690
:1041A0001B68019083423DD84A461060844200D883
:1041B00027E10022019BE11A5B461868FFF70AF924
:1041C000FFF764FC002800D10DE15B46002218686F
:1041D00004A9FEF7FBFF0028D5D0049B0193002B18
:1041E00000DA8CE0069F7B69002B02D0381DFEF7B9
:1041F000FDFDFFF711FD4B461B680190984200D270
:10420000ABE04B46019A1A60049B092BDDD8AD4AFE
:104210009B00D3589F46012293432732A35420008A
:10422000236A984743461B681A68002A00D188E031
:10423000DB68DC681E68271D3800FEF7D7FD2823E1
:104240000422E35C1A42E6D0A3692461F518F64320
:104250006560B3420AD82E00F643236A20009847CF
:10426000A3692461ED186560B342F4D9534639005F
:104270001868FEF7A3FDD2E728220123B85C059950
:104280000343BB54BA69019C8B187B603F61A34216
:1042900000D9ABE0611A8A421BD8410700D5E9E09A
:1042A000012398432733F85438003B6A98478CE73A
:1042B000282101227B5C13437B54059B0199BB6140
:1042C0005A187A603F618A4200D994E0002B00D1ED
:1042D0007BE75346391D1868FEF770FD75E7282205
:1042E0000121BB5C8B43BB546FE72823FB5C9A071F
:1042F00000D49BE0012293432732BB5465E7079B20
:104300000193069B01990293059B0298039398479A
:10431000049B0193002B00DA57E763E7FFF7AEFB3E
:10432000FFF77AFC4B461B6802000190984200D2CE
:1043300078E74B461A6053461B681A6853425A4145
:1043400038E75146424609681160524613604B46B1
:10435000019A1A60FFF79AFB37E743461B681A6811
:10436000002A39D002970BE0012293432732A3544D
:10437000236A2000984743461B681A68002A2AD0FF
:10438000DB68DC681E68271D3800FEF72FFD282338
:104390000422E35C1A42E7D0A3692461F518F643CE
:1043A0006560B3420AD82E00F643236A200098477E
:1043B000A3692461ED186560B342F4D9534639000E
:1043C0001868FEF7FBFC236A2000984743461B68E9
:1043D0001A68002AD4D1029F5146424609681160EA
:1043E000524613600DE7FEF729FAEEE6A14202D924
:1043F000994200D851E74346391D1868FEF7DEFCA4
:10440000E3E6FFF743FB43461B68DB68DD682F1DCF
:104410003800FEF7EBFC2822AB5C59070AD40121D7
:104420008B43AB5428002B6A9847CEE6380000F047
:104430006BF9CAE62300019C06E0E31A9A4213D8FE
:104440002B6A280098473300AA692D619E186E6078
:10445000A642F2D9A34201D9B342F1D94346390069
:104460001868FEF7ABFCDDE7534639001868FEF725
:10447000A5FCD7E7019D07E0EB1A9A4213D83B6AE7
:10448000380098472300BA69D4187C603F61A54280
:10449000F2D29D4201D2A342F1D94346391D186898
:1044A000FEF78CFC00E75346391D1868FEF786FCC2
:1044B000FAE6C04694060020C4090220A4060020A3
:1044C0002C0A02204849001070B582B0FEF7C2F9EC
:1044D000174C2368002B12D0FEF7C8F92368002080
:1044E000002B0AD0134B802201931F231249009303
:1044F00012480023D200FFF791F802B070BD104EB1
:104500003000FEF74BFC0F4D2800FEF747FC0E4B2A
:1045100000221E600D4B10210A201D60FEF76AFD6F
:1045200020600028D8D00A49FEF7DEFED4E7C04656
:104530002C0A0220300A022078490010694100103C
:10454000680902207C09022094060020A4060020AD
:104550007049001010B514001A00022384B05B42A9
:104560000093054B0190029118686946002303945B
:10457000FEF790FD04B010BD2C0A0220F8B50D0026
:10458000EFF3108772B60C4B10309B6884001E59F5
:10459000B14205D0094B9E420BD3094B9E4208D233
:1045A000054B9B681D51BFF35F8F87F31088300068
:1045B000F8BDFDF719FBF3E700ED00E0C0010010C6
:1045C000CC010010F8B5CE46474680B50400FFF791
:1045D00055FA474A1568002D41D00026002C37D0E7
:1045E000072310202340C01AC343A34230D320180E
:1045F00000282DDD3F4B98461B689C46834227D3FD
:104600003D4F3C003B6804E01A68002A04D01C00BF
:10461000130059688142F7D3AB4258D01E001A6884
:10462000083622600A1A102A3BD862464046521ABF
:10463000026032480468A24200D202608022120660
:10464000114300221A602E4A596013680133136027
:10465000FFF71CFA3000C0BCB946B046F8BD0720D1
:104660002849084216D180239B02CD1808000B0070
:104670000021214E083D716030600726B54315606A
:104680001E4AEB1A13601B4A69602960136043607D
:104690000560A2E7CB1D8343802080020D1818001F
:1046A000E6E71C1862603A005860110012689442F4
:1046B000FBD848680F18BC4214D060682718BA426B
:1046C00007D02260A14200D00C605968ADE70026F7
:1046D000BEE7AA42F5D055681268A9464844606012
:1046E0002260EFE76468001948600C00E6E7C04606
:1046F0009C060020BC090220F8090220C8090220FB
:10470000D40902204C09002070B5002807D00838D1
:1047100043680400002B02DA0268002A00D070BD52
:104720005B005B0843600500FFF7A8F9154A616864
:1047300013685B181360144B1A001B689C42FBD86B
:1047400050681618B44218D0681883420AD02B60FB
:10475000AA4200D015600D4A136801331360FFF7B9
:1047600095F9DCE70A4800688342F0D058681B6876
:104770008446614469602B60EAE7091815005160BE
:10478000E2E7C046BC090220F8090220D80902204D
:104790009C06002010B583070AD00300032102E025
:1047A00001330B4205D01A78002AF9D1181A10BD2E
:1047B000030019680C4A0D4C8A188A4322420FD113
:1047C0005968094A04338A188A43224208D1596831
:1047D000054A04338A188A432242F1D000E00133AB
:1047E0001A78002AFBD1E1E7FFFEFEFE8080808080
:1047F000F8B5C0460000000001B40248844601BC80
:10480000604700BF5D01002001B40248844601BC3E
:10481000604700BF7D01002001B40248844601BC0E
:10482000604700BF7D01002001B40248844601BCFE
:08483000604700BFC100002039
:104838004143454E4445552121210000426C696E93
:104848006B205461736B0000486172647761726514
:1048580020616C61726D20256420616C72656164F1
:104868007920636C61696D65640000000A2A2A2A50
:104878002050414E4943202A2A2A0A000A000000F3
:104888006E6F7420737570706F72746564000000C9
:1048980048617264206173736572740052656C6557
:1048A80061736500626F6F74325F773235713038CB
:1048B80030000000312E352E310000007069636F22
:1048C80000000000626C696E6B0000004D61722090
:1048D800323020323032340006005250BBFF3CB632
:1048E800C448001006005250E182887FAC4800108E
:1048F80006005250D3F07542A44800100D0A00007B
:104908005541525420737464696E000055415254E5
:10491800207374646F757400554152542073746425
:10492800696E202F207374646F75740006005250EE
:1049380053B4F4A12049001008005250920000001E
:10494800CA4100107842001078420010DE42001080
:10495800B0420010EA42001078420010784200107D
:10496800DE420010B0420010546D72510000000089
:08497800546D722053766300B8
:10498000AC020010A002001094020010E0480010D9
:1049900088020010EC480010F8480010344900105C
:0449A000404900107A
:1049A400F0B5C646150000B504001E000268EFF31A
:1049B400108872B61368002BFCD0BFF35F8F676852
:1049C4007B1C0ED02368BFF35F8F00221A6088F32C
:1049D400108800F055F8B8420FD1002080BCB846CA
:1049E400F0BD00F04DF823686060BFF35F8F0022D4
:1049F4001A6088F310880120F0E700F041F80700FE
:104A040006E02A003300200000F02AF80028E4D150
:104A14002268EFF3108172B61368002BFCD0BFF349
:104A24005F8F63680133ECD123686760BFF35F8FE6
:104A340000221A6081F310880120CFE710B50268C4
:104A4400EFF3108172B61368002BFCD0BFF35F8FB5
:104A540001235B42436000F00BF810BD7047C04671
:104A640001B40248844601BC604700BF912A00108B
:104A740001B40248844601BC604700BF0D2A0010FF
:104A840001B40248844601BC604700BF7929001084
:104A94001000000000000000000001000000000001
:104AA4000000000000000200000000000000000000
:104AB4000000030000000000000000000000FF00F0
:104AC4000000000001B5486801318E460047704679
:104AD40009380149884701BDE90600101402002085
:104AE40000000000980200203406002000000000AE
:104AF4000000000044060020000000000000000048
:104B04001000000000000000000000000000000091
:104B1400503300004C330000543300005233000083
:104B24004D5300004D430000533400004334000053
:104B34009525001000000000E12500108D260010CE
:104B44000000000000010000FF0000001F00000042
:104B54000000000000000000000000000000000051
:104B64009D220010351C0010192100100D22001088
:084B7400310300108D2B00102D
:04000005100001E9FD
:00000001FF
