:020000041000EA
:1000000000B5324B212058609868022188439860DF
:10001000D860186158612E4B002199600221596106
:100020000121F02299502B49196001219960352056
:1000300000F044F80222904214D00621196600F024
:1000400034F8196E01211966002018661A6600F04E
:100050002CF8196E196E196E052000F02FF8012189
:100060000842F9D1002199601B49196000215960AB
:100070001A491B48016001219960EB211966A021F2
:10008000196600F012F800219960164914480160C1
:100090000121996001BC002800D000471248134993
:1000A000086003C880F30888084703B5996A0420EC
:1000B0000142FBD001200142F8D103BD02B5186610
:1000C0001866FFF7F2FF186E186E02BD00000240BE
:1000D000000000180000070000035F00212200005C
:1000E000F4000018222000A00001001008ED00E03C
:1000F00000000000000000000000000074B24E7A12
:1001000000200420F7010010C3010010C5010010F9
:10011000C1010010C1010010C1010010C101001097
:10012000C1010010C1010010C1010010C701001081
:10013000C1010010C1010010C9010010CB01001065
:10014000CD010010CD010010CD010010CD01001037
:10015000CD010010CD010010CD010010CD01001027
:10016000CD010010CD010010CD010010CD01001017
:10017000CD010010CD010010CD010010CD01001007
:10018000CD010010CD010010CD010010CD010010F7
:10019000CD010010CD010010CD010010CD010010E7
:1001A000CD010010CD010010CD010010CD010010D7
:1001B000CD010010CD010010CD010010CD010010C7
:1001C00000BE00BE00BE00BE00BE00BEEFF3058054
:1001D000103800BEF2EB88710C7600102C760010FF
:1001E0003402001090A31AE700201F49086006C8D7
:1001F00081F3088810471D48006800282FD10DA4FE
:100200000ECC002902D000F012F8F9E71849194A7B
:10021000002000E001C19142FCD1174988471749ED
:1002200088471749884700BEFDE701C901C29A42C5
:10023000FBD370472C760010C0000020200F002058
:100240008C84001000000420000004208C84001026
:10025000001004200010042000000000704709482E
:1002600001F058FF0047000008ED00E0000000D05A
:10027000200F00208C200220811F0010010400109C
:10028000752000105756000006005250ABB3605363
:100290009873001006005250861C0302A8730010C9
:1002A000060052505422A29DB07300100500525017
:1002B000DE65F4688C840010F8B5C0460448054B30
:1002C00010B5834203D0044B002B00D0984710BDDB
:1002D000200F0020200F00200000000006480749E2
:1002E000091A8B10C90FC91810B5491003D0044B57
:1002F000002B00D0984710BD200F0020200F0020B9
:100300000000000010B5074C2378002B09D1FFF73F
:10031000D5FF054B002B02D0044800E000BF0123AD
:10032000237010BD6812002000000000E072001071
:10033000054B10B5002B03D00449054800E000BF71
:10034000FFF7CCFF10BDC046000000006C1200207B
:10035000E0720010002300B583B00193064B01A9A1
:10036000186805F0C5FA019B002B03D08022034BCF
:1003700052051A6003B000BDD817002004ED00E05C
:1003800070B582B06B46094C094EDD1D0121206815
:10039000494205F079FB0128F8D101222870002399
:1003A00029003068524205F021F9EFE7D817002004
:1003B000901C0020F0B5D02701260F4C0F4D83B0C4
:1003C0003F0601226B4620685242D91D05F0CEFA45
:1003D0000128F6D16B46DB79012BF2D12B781A007C
:1003E00072402A70012B03D080239B047B61E8E7D5
:1003F00080239B04BB61E4E7901C00208620022040
:1004000030B583B002F028FB192000F0DDF9D024CC
:10041000802324069B046362102000F0D5F980231A
:100420005B02A36201220021102000F05DF903228B
:100430000021012005F08AF8124B002218600121EA
:100440000A2005F083F8104B0122186004211020C7
:100450000E4B00F061F900250124802200230C4995
:1004600052000C480195009405F050FD80220023B5
:100470000949520009480195009405F047FD05F02F
:1004800085FEFEE7D8170020901C002055030010C1
:10049000E072001081030010EC720010B503001030
:1004A000D0231B061B68F0B59A004546904641468E
:1004B000894ADE465258574693465A1E9341302287
:1004C0004E465B421A401300844AE0B5944683B01E
:1004D00063440193824B08269A463500083DEA089A
:1004E0001300019908339B005C58002C23D05B4615
:1004F000002B2AD001230F2799463900214027429B
:1005000013D04B4652464046AB4012581A420CD1CB
:10051000072208002A40920090400200EB08714830
:100520003C339B001A502800D84724090135002C81
:1005300001D0B542E1D30836282ECED103B0F0BCAD
:10054000BB46B246A946A046F0BD0F231900214084
:10055000234207D047460E3BAB406148C059184282
:1005600000D18DE02309F11F002BE4D00F221000F1
:1005700018401A420FD0012345468B40584A525921
:100580001A4208D10722CB08114089008840554AF9
:100590003C339B009850230AB11F002BCBD00F2275
:1005A000100018401A420FD0012345468B404C4A98
:1005B00052591A4208D10722CB08114089008840BD
:1005C000484A3C339B009850230B711F002BB2D03C
:1005D0000F22100018401A4241D1230C311F002B6A
:1005E000A9D00F22100018401A4252D1230DF11E3B
:1005F000002BA0D00F22100018401A425AD1230E0F
:10060000B11E002B97D00F22100018401A420FD0B5
:10061000012345468B40324A52591A4208D10722DB
:10062000CB081140890088402E4A3C339B009850EB
:10063000240F721E002C00D17DE701235146404655
:1006400093400958194200D075E70721D3080A40A2
:10065000920094403C33234A9B009C506BE701235B
:1006600045468B401E4A52591A42B6D10722CB0842
:100670001140890088401B4A3C339B009850ACE7EE
:1006800007231D40AD00A940164B3C329200D150CB
:1006900068E7012345468B40114A52591A42A5D1B9
:1006A0000722CB081140890088400E4A3C339B004A
:1006B00098509BE7012345468B40094A52591A42FC
:1006C0009DD10722CB08114089008840054A3C3360
:1006D0009B00985093E7C046DC1700200041014082
:1006E000501F0020004001400A4B80009C4604231C
:1006F0006044002901D00C230821002A00D10B00FE
:10070000026853400C221A4080235B0118430260A8
:100710007047C04604C00140F8B51E00D0231B0638
:100720001C680700631E9C41302364421C40224B1E
:1007300015009C46C30807201A00384080008140FD
:100740003C321E48644492009B001150E418002D76
:1007500011D080239B011C43D02321601B061C6801
:10076000174FA4003B59002B11D0002E1ED03E5134
:10077000002D16D1F8BDC0239B011C43D02321605E
:100780001B061C680E4FA4003B59002BEDD1002E18
:10079000EED000220D200B493E5100F037F9002D1C
:1007A000E8D001210D2000F0CFF8E3E70D20054946
:1007B00000F020FADBE7C046004101400040014064
:1007C000DC170020A10400100123D0228340120670
:1007D00093629361094A83009446402263441968F6
:1007E000C0004A40C02111408022520113431960C9
:1007F000034B9C46052360444360704704C001409E
:1008000000400140024B18688007C00F7047C04687
:1008100000C0064070B5EFF3108C72B60D4D2B681A
:10082000002BFCD0BFF35F8F0724CB08C618C05C39
:1008300001230C40A3401C000440034207D10343A2
:100840003370BFF35F8F2C608CF3108870BD100085
:1008500001F014FC2C0100D0F8B54746CE4688467E
:1008600080B5EFF3108C72B6214D2C68002CFCD0B3
:10087000BFF35F8F9A422CD8D4080727055D06196D
:1008800001241740BC402C421FD007210127894674
:1008900009E0D408055D06194C4639001440A14012
:1008A0000C00294211D001329342F2D20120404281
:1008B000BFF35F8F00220E4B1A608CF31088002864
:1008C0000FDBC0BCB946B046F8BD2C4310003470F5
:1008D000EEE7BFF35F8F00232B608CF310880120BD
:1008E00040424346002BECD0089801F0C7FBC046BD
:1008F0002C0100D00021044B044ABFF35F8F02C3D8
:100900009342FAD17047C046000100D0800100D068
:10091000044A1078431CDBB2172B00D91023137044
:100920007047C046180E002000B5054B83B001008B
:10093000009318221F230348FFF78EFF03B000BD6A
:10094000F4720010EC17002001238340002904D02A
:10095000034A1360034A13607047034A1360FBE7BE
:1009600080E200E000E100E080E100E0012383405C
:10097000014A13607047C04600E200E0084B1030A7
:100980009B688000C358002B07D0064A00209B1AA2
:100990002F229A424041C0B270470020FCE7C04677
:1009A00000ED00E01C0E0020024B10309B68800020
:1009B000C058704700ED00E070B50D00EFF31086F1
:1009C00072B60F4A1368002BFCD0BFF35F8F0D4B3C
:1009D00010309B6884001B590B4A934203D09D4200
:1009E00001D001F069FB074B9B681D51BFF35F8F7E
:1009F000BFF35F8F0022024B1A6086F3108870BD30
:100A0000240100D000ED00E0CD010010F0B5574604
:100A10004E46DE464546E0B585B006000291170019
:100A2000EFF3108B72B6674A1368002BFCD0BFF34C
:100A30005F8F0025644B5D579A46002D00DAA4E0D5
:100A40006B00624C03935B199B009846A146C1441E
:100A50004B4652469B79103613705D4BB2009B6833
:100A6000019299580B1B2F2B34D95A4B994200D025
:100A7000A4E0039B584A9C46584B6544AD00635321
:100A8000434602336519E418554B0121043B1B1BF7
:100A90001B055B0D13436B80524BEF71AB80FF2343
:100AA000AB71029BAB604B460B431900484B019A5C
:100AB0009B689950BFF35F8FBFF35F8F0022414B5C
:100AC0001A608BF3108805B0F0BCBB46B246A9464D
:100AD000A046F0BD01200A008243D379BB422FD843
:100AE00045464E46130040491B1B5B415943090DC7
:100AF0003A4B63533A4B02356519043B5B1B1B05AC
:100B0000354D5B0D2B4373800426B446E0444444CA
:100B1000131F1B1B4C46A17102991B05A16049467E
:100B20005B0D2B43A380314BE77101431360BDE79D
:100B30005800C01880002018C679BE422BD9020088
:100B40000623D356002BF3DA101D82462848804630
:100B500004267642B446E14450464E46361A3005E5
:100B6000400D824656461C48957106439680039A6E
:100B7000944665441D4AAD00641922604246A37143
:100B8000029BA280E771A36090E701F095FA00252F
:100B900053465D5754E7101D824690884005001566
:100BA00084464046D444664604302018301AE02675
:100BB0000005400D360230438046C9E701F07CFA5B
:100BC00057E7C046240100D0842002201C0E0020DC
:100BD00000ED00E0CD01001000E0FFFF00A1FFFFED
:100BE0004C0E002001BDFFFFAAAA0000014880476B
:100BF00001BD0000F0B5DE4657464E464546E0B51D
:100C00000C0083B0EFF3108972B6584A1368002BBA
:100C1000FCD0BFF35F8F564B9A68030010339F00E0
:100C2000D559544A9046954232D0A54243D0524EAF
:100C3000AA1B2F2A2CD801228240924651464F4AA5
:100C400012681140019151464D4A1160BFF35F8F08
:100C5000EFF305829346002A33D101232A009A43F9
:100C600093689C4208D177E04B005B189B00F31817
:100C70009968A1422AD01A00062151560029F3DAB8
:100C8000019B002B19D052463E4B1A603B4B1A6019
:100C9000374B9B68DD51BFF35F8FBFF35F8F00223F
:100CA000324B1A6089F3108803B0F0BCBB46B246E1
:100CB000A946A046F0BD1500EAE75246304B1A603F
:100CC000E6E79342C9D001F0F7F9C6E70621595685
:100CD000002921DB4A005018800034188046A068A3
:100CE0009860E079D871062020569871002824DB9E
:100CF000A488F01A6405241544440019E024000572
:100D0000400D24022043988052181F4B9200B618C1
:100D10001A781970B271B3E7594600290FD1FF3123
:100D200091711A49918018490A789A71184A9B1B47
:100D30005B415A43120D0A70A2E71648E3E7164AD0
:100D40001649D21A083A5002400D014399801449BD
:100D500052080A43DA8093E706215156130000290E
:100D6000B8DA5A46002AEAD14546DCE7240100D029
:100D700000ED00E0CD0100101C0E002000E100E0BD
:100D800080E100E080E200E08420022001BDFFFF5E
:100D9000AAAA000001BD0000560E002000F0FFFFCF
:100DA00000F8FFFF70B5EFF3058101240443EFF372
:100DB000108C72B6214A1368002BFCD0BFF35F8FF2
:100DC0001F4B05001F4AED1A6D416A43120D1E4D5F
:100DD0008900AE6852B27658A6421CD006215956F8
:100DE00091421CD012215956914222D01E215956AF
:100DF000914220D02A2159560324914210D0134BFE
:100E000019781A708171BFF35F8F00220B4B1A6043
:100E10008CF3108870BDAB680D4C5C50EFE700247C
:100E20006100091989005B18FF21997109499980AE
:100E3000E5E70124F4E70224F2E7C046240100D0EC
:100E40001C0E0020AAAA000000ED00E08420022071
:100E5000CD01001001BDFFFF054B064A1360064A95
:100E6000136053609360D360136153619361704763
:100E70008080808000E400E004E400E000B5074BDF
:100E800083B001000093002205230548FFF7E4FC2E
:100E9000002801DB1F23181A03B000BD10730010D7
:100EA0008A200220024B9C46614489000160704701
:100EB0004000003410B50400FFF72AFD01002000B7
:100EC000FFF7F0FF01235B426360BFF35F8F10BD4C
:100ED00010B50400FFF71CFD01002000FFF7E2FF42
:100EE00001235B42636000232372BFF35F8F10BD59
:100EF00010B504000120FFF717FD044B9C46604429
:100F000080002060BFF35F8F10BDC04640000034FA
:100F1000034B9C46614489000160BFF35F8F7047BB
:100F20004000003483680B4810B584466144624435
:100F3000090112019A18591854684B6801209C4203
:100F400001D802D00020C0B210BD12680B689A42CE
:100F5000F9D8F7E7FFFFFF0F074810B50268EFF376
:100F6000108172B61368002BFCD0BFF35F8F03F0C3
:100F7000F9FF0020002110BD641F0020F8B557467E
:100F80004E464546DE46E0B599460CAB1C780DABA7
:100F90001B78060090469A460768002C11D1BC7B4E
:100FA000002C42D065003B682D19033D59194B7840
:100FB000BB73002B00D1FB7300238B704B700B7045
:100FC00004E065003B682D19033D5919B2682A4BAE
:100FD00094464246E3181B0163441A604A465A602D
:100FE0000A9A9A600B9ADA6000238B704B700B7030
:100FF0007B7B9B46002B2BD022005946B8687B6830
:1010000098473A68002816D05B4658465B005B4418
:101010005519033BA870D118D35C002B00D06B701E
:101020005B460C707B73A34513D0F0BCBB46B24645
:10103000A946A046F8BD5B465B005B44033BD31862
:101040009C705119525D002A00D05A705B460B709B
:101050007C7342464B46307D00F00AFB051E06D0ED
:101060005346002B03D12100306800F025FD0E9B74
:10107000002BDAD01D70D8E7FFFFFF0FF0B5DE467A
:1010800057464E4645460023E0B58BB00893674B64
:101090008200D45800239B46099000F099FA6268B8
:1010A00006000F00EFF3108572B61368002BFCD01A
:1010B000BFF35F8F23689C465B7B9946002B00D172
:1010C00069E0A2685A4B90464B441B019844434642
:1010D0001A685B6810001900801BB941002900DC08
:1010E00063E0099800F0C4FA002300229846002328
:1010F0000692079300239A466368BFF35F8F5A46B0
:101100001A6085F310885346002B08D10028C4D1FB
:101110000BB0F0BCBB46B246A946A046F0BD089B4A
:10112000414618024B461843D047626806000F003C
:10113000EFF3108572B61368002BFCD0BFF35F8FFE
:10114000002F50DB33003B4302D02369002B61D1D9
:101150002368D97B002907D04A00521819688C46A9
:1011600049466244033A51709A7B002A01D14A46AB
:101170009A734A46DA734B46E168013BCA5C013216
:10118000CA545B4623616368BFF35F8F5A461A6097
:1011900085F3108881E700230022984600230692F9
:1011A0000793002300209A46A6E7002902D10028D1
:1011B00000D096E70021604600F0FCFB43461A6829
:1011C0005B680692079343469B689A464346DB68F2
:1011D0009846E3684B44013B1B7808931B0203438A
:1011E0002361002088E72369002BB1D0069A079B72
:1011F000921BBB41002B15DB594604910121039141
:101200004946029141460191514620000091FFF765
:10121000B5FEB6E700F0DCF932003B0012184B4196
:10122000002BE9DA0122034B5242E5E7A41C00201F
:10123000FFFFFF0FFFFFFF7F10B5144C6368002B0B
:1012400004D00A211248FFF72DFE10BD2300114AD9
:101250001021206800F0C8FA032000F0ADF9032047
:1012600000F070FA03200C4900F0BCF9FFF750FBC6
:101270000A4B9C4603232375D0231B061B6860443E
:101280006375074B80006060DC60DAE7640E002065
:10129000641F0020250F00107D1000104000003456
:1012A000A41C002000487047640E0020F0B54E4694
:1012B0004546DE465746E0B585B0019310AB1B7836
:1012C0000600039300239946984600927268EFF354
:1012D000108B72B61368002BFCD0BFF35F8F35689C
:1012E000AC7B002C3DD067002B683F19033FDB1916
:1012F0005A78AA73002A00D1EA73B168474A8C462B
:1013000000980199A21812016244106051600E9970
:1013100091600F99D16042469A705A701A706B7B37
:101320009A46002B67D022001900A8686B6898477E
:101330002A68002852D0534650465B005344D719C0
:10134000033BB870D118D35C002B00D07B705346A0
:101350000C706B7354454FD0F3681B19013B187820
:1013600000E000207368BFF35F8F42461A608BF382
:101370001088002C4FD04B46002B08D10002204390
:1013800005B0F0BCBB46B246A946A046F0BD039BE3
:10139000002B3ED00E9B00200F99984703000400BD
:1013A0000D000B4335D000290ADA009A019B121B6D
:1013B000AB4100920193002B0ADB039B994685E722
:1013C00000F006F924184D4100940195002DF4DA3F
:1013D0000123134C5B4200930194EEE753465B00FC
:1013E0005344033BD3189C70D119D25D002A00D01E
:1013F0005A7053460B706C73307D009A019B00F05D
:1014000037F981460028A7D02100306800F054FB4E
:10141000A2E70020B4E701204042B1E7FFFFFF0F41
:10142000FFFFFF7F407D7047F0B5EFF30583CE46A9
:10143000474680B505000C0085B0002B12D02C4A21
:101440000020536A9C4203D8926A0130AA4204D316
:1014500005B0C0BCB946B046F0BDE01A421E90418E
:10146000C0B2F5E7234E02930193234B0200009391
:1014700030000B00FFF71AFF031EE0DD20BF71688C
:10148000EFF3108772B60A68002AFCD0BFF35F8FB3
:10149000DAB294463068427B62451DD0FF221A4082
:1014A00051008946016891448846494641440339C0
:1014B0008978002913D0F1681B0A88464244013A12
:1014C0001278DBB29A420FD07368BFF35F8F0022AD
:1014D0001A6087F31088B2E7FF221A40EBE73269FF
:1014E0009342F1D13161EFE7614600F0E5FAEBE7B5
:1014F00000400540640E0020590F0010F0B5EFF3D6
:101500000582D6464F4646461000C0B51038EFF368
:10151000108872B6214C2368002BFCD0BFF35F8F7C
:101520000123190081401E4D1F006963AA461D4D0D
:1015300029601D4D2E78AC463500C5402F402B420A
:1015400009D1BFF35F8F276088F31088E0BCBA46EB
:10155000B146A846F0BD5346144D5F6A83005D59FD
:10156000AF420ED3124A8E439B5862461670BFF3A9
:101570005F8F0022226088F31088002BE6D0984706
:10158000E4E70C4B92009C46624413681360BFF37F
:101590005F8F0023236088F31088D7E7280100D0ED
:1015A000004005403C70054089200220701F00204B
:1015B000C8160020D03F054010B50100024A03487C
:1015C000FFF728F910BDC0462C73001083200220BD
:1015D000034B596A0A00986A596A8A42FAD17047DD
:1015E0000040054070B504000D00EFF3108672B6A0
:1015F0001A4A1368002BFCD0BFF35F8F002D1BD05D
:101600002000FFF7D1F9164981420AD02000FFF7E8
:10161000D3F901212000FFF797F90123A340114AD4
:101620001360114BA400E550BFF35F8F00220B4BFA
:101630001A6086F3108870BD0B4BA200D5500122B2
:10164000A2400A4920000B7893430B700449FFF72E
:10165000D1FA00212000FFF777F9E5E7280100D053
:10166000FD14001038600540C816002089200220B3
:10167000F0B54F46D6464646C0B507002C4C616AC9
:101680000D00A66A616AA942FAD18B4208D805D03A
:101690000120E0BCBA46B146A846F0BDB242F7D937
:1016A000EFF3108A72B6234801680029FCD0BFF31B
:1016B0005F8F0125BD4020491D4C88460978894629
:1016C0002943C9B28C46414660460870391D1B4803
:1016D000890065630A51B9000B50216A0020294234
:1016E00019D0616A0800A66A616A8142FAD18B4208
:1016F00019D801D1B24216D8CC4516D00C4B1F20B8
:101700001D625D6301230740BB400D4A1E38136014
:1017100043464A461A70BFF35F8F0022054B1A609A
:101720008AF31088B5E70020F5E70120F3E7C0460B
:1017300000400540280100D089200220701F0020B1
:1017400080E200E0EFF3108C72B60A490B68002BC0
:10175000FCD0BFF35F8F01238340074A0748136221
:1017600002789A430270BFF35F8F00230B608CF303
:1017700010887047280100D00040054089200220D1
:1017800070B5050014001600002915D00C00002AC1
:1017900012D080686B689847296800280ED07300C3
:1017A0009B196200033B1219CB18033A9C708818EE
:1017B0008A5C002A15D10670200070BD63001B19D9
:1017C0007200033B9219CB18033A9E7088188A5C0A
:1017D000002A02D104703400EEE75A70047034001D
:1017E000EAE75A700670E7E730B583600023CCB2B1
:1017F00043730133047342608373C4730D00006844
:10180000012C06D9421C0133DBB2137003329C4217
:10181000F9D1FF2129404B00591800234018033803
:10182000437030BDF8B5CE46474606000C0080B583
:10183000002907D04D0003686D18033D5A195778E9
:10184000002F04D12000C0BCB946B046F8BD7900D5
:10185000C91903398846434459788946002159708B
:10186000517073683A0021008068984733680028F7
:1018700014D042469A18947059195B5D002B00D021
:1018800053700F70270049463000FFF7CBFF390037
:1018900002003000FFF774FF0400D3E742464146E0
:1018A0005D19AF709A185B5C002B00D06B701470E0
:1018B000E9E7C046F0B557464546DE464E46E0B538
:1018C0000D006B0001685B19DF1E0400C85D83B06A
:1018D0000192CA19002850D043001B18033BCB18B3
:1018E0005E78B446002E1AD1019E002E42D0E67BCF
:1018F000002E04D073009B19CB18033B5D70A37BB3
:10190000002B00D1A573E57300282FD1002353705D
:1019100003B0F0BCBB46B246A946A046F0BD72007B
:101920006244033A89184A78904600224A709146E8
:101930005A70010032002000FFF722FF4346824622
:10194000002B07D05B0021684344033BCB185A7837
:10195000002A16D1424651462000FFF711FF2168A8
:10196000019BCA19002BC2D10028CFD043001B18FD
:10197000033BCB1800219970C8E7019B002BB6D11F
:10198000C4E7500080180338091848788346484651
:101990004870587041462000FFF7F2FE59468046D5
:1019A0002000FFF73FFF414602002000FFF7E8FE5E
:1019B0008046CFE7F0B557464546DE464E46E0B591
:1019C00083B00191457B04006B0000685B19DF1E4A
:1019D000C15DC219002952D04B005B18033BC318EC
:1019E0005E78B446002E1CD1019E002E44D0E67BCA
:1019F000002E04D073009B19C318033B5D70A37BBA
:101A0000002B00D1A573E573002931D100232800F4
:101A10005370617303B0F0BCBB46B246A946A04602
:101A2000F0BD72006244033A80184278904600226A
:101A3000427091465A7020003200FFF7A1FE4346E3
:101A40008246002B07D05B0021684344033BCB1840
:101A50005A78002A17D1424651462000FFF790FEDF
:101A6000019B01002068C219002BC0D10029CDD0F4
:101A70004B005B18033BC31800209870C6E7019B1E
:101A8000002BB4D1C2E750008018033809184878F9
:101A9000834648464870587041462000FFF770FE64
:101AA000594680462000FFF7BDFE41460200200057
:101AB000FFF766FE8046CEE770B5040000292CD003
:101AC000437B8B422ED00568480040180338281805
:101AD0008278002A21D053009B18033BEA5CEE1861
:101AE0008A4202D11BE0002A08D053009B18033B16
:101AF000EB185A788A42F6D142785A7000230122B4
:101B0000837043702000FFF7D5FE617B0200200048
:101B1000FFF736FE6073012000E0002070BD4378BF
:101B20003370EBE701221900FFF7C4FE6073012058
:101B3000F4E7C04630B50C2083B000F0B9F9FEF7E9
:101B400061FE00280ED0994B994A1A605A609A603B
:101B5000DA601A615A619A61DA611A62954A5A62C8
:101B600003B030BD944CA06700F0F6F90122934B0E
:101B70001A60636C012BFCD10322914B1A608E4AD0
:101B8000936B012BFCD1013301218E4A8E480093C7
:101B9000043300F03DF905238C4A009301218C4861
:101BA00000F036F98B4B5A68FF2A02D88022520087
:101BB0005A6080227D4C824B21691201854D1A604A
:101BC000002907D0606900F0D7FA431C5800C018FC
:101BD0000338FDD2E0217F4B02201A681140802299
:101BE00052012A43116019684840032101401160E5
:101BF00004219A681142FCD08022802192012A435C
:101C000009011160802252005A60734B2361734BAB
:101C10005968FF2900D85A600321684A6F4B116048
:101C200002399A681142FCD0E0201A6810408022E4
:101C300052011A43106018684840032101400220F5
:101C4000116066498A681042FCD0802292011343D9
:101C5000802212011A608022614B52004A60636147
:101C6000604B5968FF2900D85A6080225E4BE169B9
:101C700012015C4D1A60002907D0606900F07CFAFF
:101C8000431C5800C0180338FDD2E02255490B68A8
:101C90001A4080235B012B431A60802380229B0122
:101CA0002B4312011A608022414B52004A60E361CB
:101CB0004E4B5968FF2900D85A6080224C4B216A4C
:101CC00012014A4D1A60002907D0606900F054FAE9
:101CD000431C5800C0180338FDD2E02243490B686A
:101CE0001A4080235B012B431A60802380229B01D2
:101CF0002B4312011A60802380225B004B602C4B27
:101D0000D20223623B4B5968914200D25A60802232
:101D1000394B616A1201374D1A60002907D060699A
:101D200000F02AFA431C5800C0180338FDD2E02204
:101D300030490B681A4080235B012B431A608023D3
:101D400080229B012B4312011A608023DB024B602F
:101D5000184B6362294B5A68FF2A02D8802252002E
:101D60005A608022264BA1691201244D1A60002975
:101D700007D0606900F000FA431C5800C01803380F
:101D8000FDD2E0221D490B681A4080235B012B43E2
:101D90001A60802380229B012B4312011A6080234A
:101DA0005B004B600E4BA361DAE6C046F0170020E3
:101DB000006CDC021BB70000008000403CB000401B
:101DC00030B00040002F685900800240008C8647E8
:101DD00000C0024030800040001BB7003C80004043
:101DE000405973075480004054B000406080004068
:101DF00060B000406C8000406CB000404880004003
:101E000048B00040014B8000C0587047F0170020D8
:101E1000F8B5040021481D0017000E0000F0ACF9D1
:101E20000100380000F0A8F9069B29041B031943A0
:101E30002368002B20DB1A4B1A4DE21853425A41FB
:101E400080235B019C461203174B62441A60174BB8
:101E50001A601700AB689F43FBD1C022231D92017B
:101E60001A4321232660A06013602368002BFCDA4C
:101E70000823E1601360F8BD3F2322681340B3429A
:101E8000D9D1A3681B051B0D8342D4D1EE22E36890
:101E9000D20213408B42CED1EDE7C046001BB70003
:101EA0000040FDBF00C0004000E0004000F00040E6
:101EB0008023024A9B000343D362704700800540A1
:101EC00010B5140080221B4BD2051A6000281AD0CE
:101ED0000123194A1843194BDA61194A42401A6220
:101EE000596298628022134BD2051A601549164A2E
:101EF0001160E022D2041A60002C07D18022134B1B
:101F000012061A6010BD0D4BD861EBE763011B1B75
:101F10009A008023121912015B049A4200D30C4AE2
:101F20000C4B1A60054B5A608022084BD2051A6090
:101F3000E8E7C04600B00540D3C007B000800540C8
:101F40002D3FF84FFCFF01000820014000A0054094
:101F5000FFFFFF00941C0020AA23064A1B01136008
:101F60002F230549D360054B19605368002BFCDA19
:101F70007047C0460040024000B0FA0000600240D6
:101F80002C4B2D4A70B51A602C4A2D4B2D491A60E6
:101F900014008B689C43FBD12B4D2C4EB54208D2CC
:101FA000013E761BB60808CD984723000134B342A2
:101FB000F9D1FFF7BFFD264A214B1A60214A9368E9
:101FC000DB43DB01DD09002BF9D14022214B224C00
:101FD000224E9A675A671A67DA66B44208D22368B3
:101FE0002000002B20D00C34FEF772FFB442F6D351
:101FF0001B4E1C4CC022A168300000F0C5FBA6603F
:10200000FEF778FCFEF728FFFFF716F9164C174E7F
:10201000B44208D2013E361BB60808CC98472B00C4
:1020200001359E42F9D170BD0834FEF743FFB4423A
:10203000D5D3DDE700E00040BFCDFBFEFE7F3C00D6
:1020400000F0004000C00040040F0020140F0020EA
:10205000FFFFFF0100F00140F40E0020040F0020FC
:102060000000002000ED00E0140F0020200F0020F1
:1020700000BEFDE710B5FFF7FBFFC0460FB400B58B
:10208000084883B000F0B2FC049B002B07D005A9E0
:102090001800019100F01EF8034800F0A7FC012091
:1020A000FFF7E6FF507300106073001010B5014891
:1020B000FFF7E4FF6473001010B50148FFF7DEFF7F
:1020C0007473001010B5002800D110BD00F042FC60
:1020D000FBE7C04610B5094A0300146884B0002C21
:1020E00008D0012200910648524203A9A0470120CE
:1020F00004B010BD00F07AFC0020F9E78C1C002031
:10210000C520001001480421014B1847900E002003
:1021100035210010142310B50100188804331B88E2
:10212000984710BD162310B50100188802331B888C
:10213000984710BDF8B54746CE4680B50F1E19D05A
:1021400014239946043304000025012698464B4683
:102150001888434621681B88984701C4431E98414C
:10216000013540420640AF42F1D13000C0BCB94613
:10217000B046F8BD0126F8E7114A936F9B0813D2C9
:1021800010665166002905D0FFE7FFE7FFE7516FB2
:10219000106F704704B5002801D00020C04305F03F
:1021A0005FF8002104BDC046F0B5146E556E576F40
:1021B000166FFFF7E5FF1466556657671667F0BDA3
:1021C000000000D094464A4A926F9208624601D2BB
:1021D00028E0C046F0B5464E346E756E776F366FA8
:1021E00000F020F89446424A146655665767166711
:1021F0006246F0BD94463E4A926F9208624601D212
:1022000054E0C046F0B53A4E346E756E776F366F57
:1022100000F04CF89446364A1466556657671667C0
:102220006246F0BD002B24DB11D000293EDA00B558
:10223000C943404200D1013100F038F8C94340425F
:1022400000D10131DB43524200D1013300BD002AED
:10225000EBD1002801D1002905D00020C90FC90702
:1022600001D1C043410800B504F0EAFF0022002379
:1022700000BD00B500290ADBDB43524200D1013327
:1022800000F014F8C943404200D1013100BDC943F8
:10229000404200D10131DB43524200D1013300F012
:1022A00005F8DB43524200D1013300BD002923D1A0
:1022B000002B18D1002A0CD0BC460D4F38667A6628
:1022C00000210023FFE7FFE7FFE77A6F386F6746DB
:1022D0007047002801D00748010000B504F0B0FFA6
:1022E0000022002300BD02000B00002000217047E7
:1022F000000000D0FFFFFFFF002B00D0BFE0130C59
:1023000028D1002AE7D080B4114F39667A66FFE7FA
:10231000FFE730B4040C7B6F396F1B0423433B662B
:102320007A66FFE7FFE7FFE7C04684B27B6F3D6F49
:102330001B0423433B667A66FFE7FFE7C0460023A2
:102340002C042D0C7A6F386F00196941B0BC7047AE
:10235000000000D0F0B594460025140E01D1120201
:102360000835140F01D112010435940F01D19200E8
:102370000235D40F01D152000135D40B0134254F61
:102380007C66254C3C660E0C93B2FFE7FFE7FFE747
:102390003C6F6643360C7703BE467343DF0B5B042A
:1023A000C01AB941130C7343DB18C91ACE0866432F
:1023B000360CB64493B273431F0F1B01C01AB941C8
:1023C000130C73431F0B1B05C01AB941860D8F02F6
:1023D0003E436643360C092D24DB520A7243801AB1
:1023E0007703460A6643360C16235B1BDE40DF404C
:1023F000BF1964466643821B7046043506330100EC
:10240000D940A840C01900D30131A24206D200230E
:10241000F0BD0000000000D0FFFFFFFF121B0130E5
:10242000F3D3F1E709277F1BFE406446A2B2724353
:10243000801A00D20139220C7243130C1204821A42
:1024400099410B007046043513370100F940A8404C
:10245000801900D30131002B02D1A2420AD2F0BD73
:10246000013000D30131121BFAD2013BF8D1A24254
:1024700000D2F0BD013000D30131121BF7E7F0B5F7
:102480001C0C00D080E00CB400251C0A04D11B02F7
:10249000160E3343120208351C0B04D11B01160F14
:1024A0003343120104359C0B04D19B00960F334338
:1024B00092000235DC0B02D192185B4101351C0001
:1024C000971864410134464F7C66464C3C660E0CBE
:1024D000FFE7FFE7FFE7C0463C6F6643360C770334
:1024E000BE4697B27743C01B00D20139C01B00D251
:1024F00001399FB27743C91BC91B170C77437E0470
:10250000FF0B801BB941CE086643360C0C2D33DB24
:10251000B644120B1F053A431B0B97B27743C01BFF
:1025200000D201399FB27743C91B170C77433E0491
:102530003F0C801BB941860D8F023E43664329271D
:102540007F1BFE400C3D7746AF40BF1930BCA2B2A6
:10255000ABB272437343801A9941220C7243130C3D
:102560001204801A994102000B000137001BA94197
:10257000F9D2781E0021F0BD0C277F1BFE40774664
:102580007F0BAF40FF19E0E700245D1C07D0144F1C
:102590007D663966FFE7FFE7FFE7FFE73C6F95B22F
:1025A0009EB265436643401BB141150C1E0C65434A
:1025B000664336042F0C3E432D04401BB141994223
:1025C00004D202000B0020000021F0BD01D1904296
:1025D000F7D3801A994101349942F2D3F6E700000B
:1025E000000000D0FFFFFFFF132370B51D78012D01
:1025F00015D010DD1C48FFF795FD1C4C0100802212
:10260000200000F0C1F8022D06D01948FFF782FD26
:10261000184B186070BD154C174BA364F5E7164BAB
:10262000124C23606360A360E36023616361A36174
:10263000E36123626362A362E36223636363A36370
:10264000E36323646364A364E36423656365A36550
:10265000E36523666366A366E36623676367A36730
:10266000E367A364D1E7C04653440000281000206C
:102670004C330000601F00207D26001007B5604627
:1026800001880A0A0230DF2AFAD1C9B2820804D3CB
:10269000028840880004104300E00068014A50505E
:1026A000039007BD2810002051434343C9188C46AE
:1026B000110C83B24B4310B4040C614392B280B24C
:1026C000504362431C041B0C001910BC59411304F5
:1026D000120CC0185141614470470000132310B51B
:1026E00012481C78FFF71EFD0100012C0AD003DD03
:1026F00080220F4800F048F80E48FFF70BFD0E4B04
:10270000186010BD0A4C5422200000F03DF80B4B1D
:102710006365A365E36523666366A366E366236773
:102720006367A367E3672362E361E5E7534600005D
:10273000281100204C330000601F002041270010AA
:1027400007B5604601880A0A0230DF2AFAD1C9B209
:10275000820804D3028840880004104300E0006827
:10276000014A5050039007BD281100200148042160
:10277000014B1847A00E002035210010014B1B68AB
:1027800018470000A00E0020014B5B6818470000AE
:10279000A00E0020030010B5080011001B68984728
:1027A00010BDC046F0B546464F46D646C0B5437D3F
:1027B00080460E001700002B46D0002A3FDD4B1E3E
:1027C0009946244B0125002400209A460DE04B46F3
:1027D0001B5D0D3B5A425341325DDBB20A2A0BD0DE
:1027E0002B00013401359F421ADD002CEFD1434606
:1027F000325D1B7D0A2AF3D1002BF1D1A04204DA0D
:102800004346211A1B6830189847434650461B68B8
:1028100002219847013428002B0001359F42E4DC57
:10282000874204DD4346391A1B6830189847F61969
:10283000013E33780D3B5A42534142461375E0BC8A
:10284000BA46B146A846F0BD03681100300098476B
:10285000F5E7C046E0730010F0B5DE4657464E4639
:102860004546E0B585B017001C0006000D00FEF7D8
:10287000AFFE0023304A12184B41002B58DB2F4982
:1028800008008A4604F00CFD01906B1C03D1300057
:1028900004F08EFC0500002C25D1294B9846294BCD
:1028A0001C68002C15D0002F20D1274F02E024698E
:1028B000002C0ED02368002BF9D03B68002B01D0F0
:1028C000A342F4D120002A003100C0472469002C23
:1028D000F0D1019B002B27D105B0F0BCBB46B2461E
:1028E000A946A046F0BD194B9846D8E7164B994625
:1028F00002ABDF1D0A239B4602E02469002CE8D0CE
:102900002368002BF9D04B461B68002B01D0A34253
:10291000F3D12A0031002000C0475B460122390074
:1029200020003B70C047E8E7504604F081FCD3E745
:102930000122074B5242A2E740420F00FC0E00204A
:10294000A527001080180020881800209527001067
:10295000FFFFFF7FF0B5CE46474680B583B06B469C
:102960000600DD1D2870FEF733FE00231A4A1218F8
:102970004B41002B2BDB19490800884604F090FCE2
:10298000174B81461C68002C14D0164F02E02469B6
:10299000002C0FD02368002BF9D03B68002B01D00E
:1029A000A342F4D1200001222900FFF7FBFE246995
:1029B000002CEFD14B46002B05D1300003B0C0BC3A
:1029C000B946B046F0BD404604F032FCF5E70122BE
:1029D000054B5242CFE7C04640420F00FC0E00209C
:1029E0008018002088180020FFFFFF7F70B50400CA
:1029F00004F0DEFB00230100050001222000FFF7A8
:102A00002BFF084B1C68002C06D06368002B05D0F8
:102A100098472469002CF8D1280070BD2469002C47
:102A2000F3D1F9E7801800200A4A1368002B05D17A
:102A30000CE01A001B691032002B07D09842F8D125
:102A4000002902D103691360016170470029FCD09D
:102A50001060FAE78018002010B500F0D9F910BD19
:102A60007047C0460022014B1A7070478520022033
:102A70004B790020FF2B0BD18B79002B08D1CB7920
:102A8000012B05D1082A03D98A78024B09301A7024
:102A90007047C046852002200120704770B501298B
:102AA00009D115495379107909781B020343002095
:102AB000994202D070BD0120FCE75378012B08D069
:102AC000022BF7D1002064220021FFF7F9F9012041
:102AD000F0E79478D278050012021443D20502D5AB
:102AE000620A93401D000548FFF714FB7F21030095
:102AF000214028009847C04685200220554200000A
:102B00000123037000487047E473001048780B7885
:102B10008A7800021843120410439622CB7810B52D
:102B20001B060343D200934200D010BD0348FFF7B9
:102B3000F1FA0021030008009847C0465542000002
:102B4000024B1860024B19607047C046E417002022
:102B5000E817002010B5024B1878FDF707FF10BDED
:102B600087200220114B70B51A68002A1AD0EFF3A3
:102B7000108172B610680028FCD0BFF35F8F00226E
:102B80000B48596002701B68BFF35F8F1A6081F3B6
:102B9000108800240025074B1878FDF7E7FE290070
:102BA000200070BDFA240025A400F4E79C1C00203E
:102BB000882002208720022070B5040000200E002B
:102BC00001F002FB002835D0002001F015FB0028A1
:102BD00030D0FEF7FDFC0023184A12184B41002BA1
:102BE00024DB174D280004F05BFB002822D00020D6
:102BF00001F0EAFA00280BD1012000210324404211
:102C000000F0CCFC6442280004F012FB200070BDF0
:102C1000002001F0F1FA0028EED02100320000205F
:102C200001F0F6FA041EEED1033CECE70122054B5D
:102C30005242D6E703246442E8E7C04640420F0010
:102C4000681F0020FFFFFF7FF8B5DE46574680B5BE
:102C500005000C00FEF7BCFC0023364A12184B415D
:102C6000002B5ADB344908008A4604F019FB00287F
:102C700003D1C0BCBB46B246F8BD002001F0A4FAA7
:102C800000284ED00026002C43DD2C4B9B4614E040
:102C9000A919002001F030FB07000120002140426B
:102CA00000F07CFC002001F0EBFAFEF791FC234BD6
:102CB000F61918605960B4422BDD002001F036FB94
:102CC000A71B0200B84200DD3A00002AE0D1012033
:102CD0000021404200F062FC002001F0D1FA002007
:102CE00001F072FA002814D0002001F01FFB002828
:102CF000E1D1FEF76DFC5B460F001A685B680021AE
:102D000084460F4812184B419F4202D8D3D19445B4
:102D1000D1D9504604F08CFAABE70122094B52425C
:102D2000A0E700200021054B18605960504604F0D0
:102D30007FFA9EE740420F00681F0020201000200D
:102D400020A10700FFFFFF7F10B5244C84B00021B5
:102D5000200004F095FA00281CD1214B1A68002AA3
:102D600016D0EFF3108172B610680028FCD0BFF3C4
:102D70005F8F01241B48596002781B68D2B204702F
:102D8000BFF35F8F0020186081F31088002A0AD0FB
:102D900004B010BD01200021404200F0FFFB2000E4
:102DA00004F046FAF4E7FEF77DFA0400FEF710FCA3
:102DB000FA220023920012184B41002B09DB01215B
:102DC000029100210191084920000091FEF76EFA5E
:102DD000DEE70122054B5242F1E7C046681F0020A2
:102DE0009C1C002088200220652B0010FFFFFF7F25
:102DF000054B10B51868002804D0044B0022196850
:102E000001F044F810BDC046E4170020E817002088
:102E1000D02310B51B0684B01C68FEF743FAFEF7FA
:102E200001FBA04202D0002004B010BD264B1B784D
:102E300001F066FC2548FEF73DF80120FEF71EF87C
:102E4000FF23234C234920701840FDF7B5FD20785F
:102E50000121FDF779FD0520FDF790FD002822D125
:102E6000FEF720FA0400FEF7B3FBFA2200239200DB
:102E700012184B41002B22DB01210291002101910C
:102E8000154920000091FEF711FA082204000021E4
:102E90001248FFF773FC002CC5DB11480121FFF736
:102EA000C3FD0120C0E700220E490520FDF7AEFD5D
:102EB000FDF72EFD01000948FEF72AF8EDE7012293
:102EC000094B5242D8E7C04628760010681F002000
:102ED00087200220492D0010652B00109C1C00202B
:102EE000B00E0020552B0010FFFFFF7F00487047F9
:102EF0009C740010004870474874001070B50400BE
:102F000017480378002B21D0002C06D1C124154886
:102F1000154BA4004380048070BD052C1DD8134BB5
:102F20001048A400E558811C002304E001330A8006
:102F30000231132B0ED0EA5CDCB2002AF6D1C0239A
:102F40000134E4B264009B001C43E4E7112100F06B
:102F500017F8D9E7CA24A400DDE70020DCE7C04663
:102F6000841F02205818002009040000B0740010CB
:102F700010B5024800F0D8F810BDC046581F002018
:102F800030B54B1E012900D1A7E0664A11780D111A
:102F90002C0030349F2900D9A2E00470012B00D10D
:102FA000BEE00F21147821400C003034092900DDE7
:102FB00098E04470022B00D1B2E05478251129002A
:102FC00030319F2C00D990E08170032B00D1A7E015
:102FD0000F2121400C003034092900DD87E0C47046
:102FE000042B00D19CE094782511290030319F2CCE
:102FF00000D97FE00171052B00D191E00F21214024
:103000000C003034092900DD76E04471062B00D134
:1030100086E0D4782511290030319F2C00D96EE04C
:103020008171072B00D17BE00F2121400C0030344F
:10303000092966DCC471082B00D171E014792511CF
:10304000290030319F2C5FD80172092B68D00F21E5
:1030500021400C003034092958DC44720A2B5FD01F
:1030600054792511290030319F2C52D881720B2BB5
:1030700056D00F2121400C00303409294BDCC4729A
:103080000C2B4DD094792511290030319F2C00D97B
:10309000073101730D2B43D00F2121400C00303438
:1030A000092901DD37310C0044730E2B38D0D1795A
:1030B0000C11220030329F2900D9073282730F2B66
:1030C0002ED00F220A4011003731092A01DC30329C
:1030D0001100C173102B23D010300023037030BDBA
:1030E00007345AE737310C0063E707316CE73731B3
:1030F0000C0074E707317DE737310C0085E70731B5
:103100008EE737310C0095E707319DE737310C002A
:10311000A3E70731AAE737310C00C4720C2BB1D1F9
:10312000C018DAE7581F002030B5002589B0040028
:103130000922002101A80095FFF720FB09220021A8
:1031400005A80495FFF71AFB4B236A4668461370DF
:1031500004A90D2204F064F8152108222000694416
:10316000FFF712FB09B030BD10B501210520FDF7B6
:10317000EBFB10BD10B500220021024800F05AF907
:1031800010BDC046AC1800208022024B5202DA6407
:103190007047C04600201150F0B5C64600B5060085
:1031A00000F022F90C231B4DFF22AB6705201A49C2
:1031B000FDF72CFC40239846184C402200212000AB
:1031C000FFF7DCFA43460127238321210023144A19
:1031D0006770A260136063545F3161844146218748
:1031E000053963540F4A10496360E260A1620B60C5
:1031F0006362E26204F00CF880239B052F64EB64A9
:1032000090230A4A3000EA50FFF7BEFF80BCB84660
:10321000F0BDC04600001150D90400208C180020D9
:1032200084001050000110508000105010D0010098
:103230000B785B0602D14B78052B00D070478A785B
:10324000014B1A60FAE7C04600001150F0B5C646BF
:1032500000B54B790C791B0288782343CC787F2109
:10326000A4070140C509A20F4F001400324E7A197D
:103270005201B218907001206840507000205B0528
:103280005B0DD0701383D4768046CA00012D33D0F5
:103290002A488446880162448446B4446046826079
:1032A00040461060002933D0254AC9009046624646
:1032B000414451603F223F339343022C00D15B00D5
:1032C00020487A1901685201B218D1601E4ACB1801
:1032D000036051405340802288465201934228D8CF
:1032E0004346A4061C4380237F197F011B06F61961
:1032F0001C4373681C6011E01448844688016244D2
:103300008446B4446046826240461060002909D178
:1033100000236D01761973600D4BF360012080BCB2
:10332000B846F0BD084AC900904662464144516221
:10333000C0E7FEF7C1FED3E78C18002084001050D0
:1033400004001050981C0020000010508000105005
:103350000001105010B503F05BFF10BD10B57F20C9
:103360000C0020404000E409110000191A00034B32
:103370004001C01800F05EF8012010BD8C1800203C
:103380007F22130010B50B400A420BD0C9098022DE
:10339000580040180649400140181201002103F06E
:1033A00097FF10BD02220348C909521A8266EEE750
:1033B0008C180020002011507F22100010B508400A
:1033C0000A4200D110BD0023C90940004018044939
:1033D0004001081800220349C37003F079FFF1E7A8
:1033E0008C180020FFF7FFFF80220D4B520410B510
:1033F0001A600C4B0C491A6010008B689843FBD183
:103400000A4C9C2200212000FFF7B8F980220021FD
:1034100052010748FFF7B2F90923636710BDC046A0
:1034200000E0004000F0004000C0004000001150EB
:103430000000105070B5837E04000D001600002BB4
:1034400017D10023E38201332000A682A3762561F1
:1034500003F0FEFE002804D080219023084A890250
:10346000D150200003F004FF002805D0012323776A
:1034700070BD03F025FFE4E7200003F019FFF7E734
:1034800000201150024B5878431E9841C0B270473B
:10349000AC150020024B18784007C00F7047C0469B
:1034A000AC150020034B1878FF38431E9841C0B27A
:1034B0007047C046EC0E0020F8B5CE46474680B5B2
:1034C0002C4E050033780120FF2B03D0C0BCB94639
:1034D000B046F8BD532200212748FFF74FF9274C8B
:1034E0002000FDF7E7FC264B1C60264C2000143022
:1034F000FDF7FEFC200001F0D1FB234B234F1C60A5
:10350000234B9846002B04D03800FFF7F9FA214BE3
:103510001860424600243B78002A23D01E4A904679
:103520001C4A9146A34212D80FD143469847013412
:103530003B78E4B2A342F5D228003570FFF72CFEA9
:103540002800FFF711FE0120C0E70020BEE74A4631
:103550001268630094461B19DB006344002BF4D00F
:103560001B68E3E700F0EEFE3B780020002BADD1B6
:10357000E2E7C046EC0E0020AC15002064150020E8
:1035800000160020D00E002004160020802002200B
:10359000012B00108412002045430010F0B5DE46D8
:1035A00057464E464546E0B58BB001F0AFF80028CF
:1035B00000D10FE1C74BC84D9946C84B07AC9B469D
:1035C0002E687269EFF3108172B61368002BFCD07D
:1035D000BFF35F8FB1613000210001F0A1F9726982
:1035E000B369BFF35F8F0021116083F31088002857
:1035F00000D1EFE06378082BE2D84A469B00D3580D
:103600009F466368002BDBD0A0689847D8E77F22ED
:103610002179B24E0A405000CB093618F618300016
:1036200001273030C378BB43C370C3780337BB4333
:10363000C370002A00D1F2E0A94AF37C002A06D028
:10364000A84A1278934200D260E19B1ADBB2002BA9
:1036500000D0BFE0A44E62792078A368B047AFE7FE
:103660005B4601221B78012113435A461370332312
:103670005846D25C5E468A43C254C25C04208243F0
:10368000F2540133F25C8A43F254F25C8243F25406
:10369000237800209A4600F005FD602223791A4025
:1036A000602A0DD0402A00D1BFE0DB06DB0E012BE3
:1036B00000D136E1022B00D1D4E0002B00D1C3E0D1
:1036C00020780021FFF75CFE80212078FFF758FE6C
:1036D00076E7824E3378DB0700D471E7834B002B0B
:1036E00000D16DE700E000BF6AE77C4E3378DB076E
:1036F00000D465E77E4B002B00D161E730780007EE
:10370000C00F00E000BF5BE7764B754A9846002685
:1037100027781B78002A00D179E0764A92469E42AB
:103720005FD319D1744B38009847434601361B7854
:10373000F6B2B342F3D2694E532200213000FFF7B4
:103740001DF81022FF21F01CFFF718F8300020228E
:10375000FF211330FFF712F800F09AFC674B002BA3
:1037600000D12DE700E000BF2AE75E4B5C4A984697
:10377000002627781B78002A1FD05E4A92469E4278
:103780003AD321D15C4B38009847434601361B7829
:10379000F6B2B342F3D2514E532200213000FEF76D
:1037A000EDFF1022FF21F01CFEF7E8FF3000202281
:1037B000FF211330FEF7E2FF07E0380000F000FEC3
:1037C00043461B78002BE6D0444E00F061FC237981
:1037D000B370F5E60BB0F0BCBB46B246A946A046B6
:1037E000F0BD52461268730094469B19DB00634497
:1037F000002BB1D05B6896E752461268730094467E
:103800009B19DB006344002BDED05B68BBE738000C
:1038100000F0D6FD43461B78002B9DD18BE76279E3
:103820002078A36800F052FCCAE63548002800D191
:1038300046E700F037FC0121504608AA00E000BF2F
:10384000002800D0BCE63BE7202A00D19EE0002AF9
:1038500000D035E76379092B00D931E7294A9B006D
:10386000D3589F467023217A0B4200D028E7584650
:103870000F330B405B00CE09C018194F8019C07C74
:10388000002F06D0174F3F78B84200D2A0E0C01BEF
:10389000C0B2002800D096E0002A00D047E11A4FBD
:1038A0000220627990468243012A00D142E14246D9
:1038B000002A00D004E75B449E193036F37806AA4C
:1038C0009B07DB0F023213805046022308A900F049
:1038D00081FB75E63075001004160020AC15002041
:1038E000012B001080200220B945001000000000CC
:1038F0000000000084120020C143001000000000FE
:103900000000000054750010BC7500105A00D31858
:10391000B14ADB001268D318002B00D15AE71E69A8
:1039200099E6237A0F2B00D9CAE6AC4A5B44DB78D0
:10393000002A05D0AA4A127893425ED39B1ADBB2C2
:10394000002B00D0BCE6A748A74E00F0ABFB01213E
:103950005046F36808AA9847002800D030E6602255
:10396000160023791E401A4200D0A9E663790A3B6B
:10397000012B00D9A4E600F095FB63790A2B00D156
:1039800020E1504608A900F00DFB19E6237A0F2B21
:1039900000D995E6914A5B44DB78002A06D0904A2C
:1039A0001278934200D2E6E09B1ADBB2002B00D0E3
:1039B00086E68C488C4E00F075FB01215046F3687A
:1039C00008AA98473CE70027002A00D168E777E675
:1039D00047003818804FC0003F683F18002A00D1C8
:1039E0005EE7002F00D16BE6F86800F05BFB012179
:1039F0005046FB6808AA984722E7774A5E00F3180A
:103A00001668DB00F618002E00D159E6F0689CE736
:103A1000A279019273789A4207D07378002B00D074
:103A200046E1019B002B00D0EAE05B46019A50463C
:103A300008A95A7000F0B6FAC2E5737806AA0232F5
:103A400013705046012308A900F0C4FAB8E5E088D5
:103A5000030AC0B20F2B00D932E664499A008A5893
:103A6000974608A800F024FB5046A179FFF782FB97
:103A70000222337813433370A2E5E388012B00D090
:103A80001EE60822337893435A46137079E70220E2
:103A9000317806AB9A1C8B068908DB0F01400B437B
:103AA00011E7E388012B00D00AE60822337813439C
:103AB000EAE74F4B002B00D102E600E000BF021EF8
:103AC00000D1FDE5D37891781B020B43504608A93D
:103AD00000F080FAB4E6474B002B00D1F0E500E09F
:103AE00000BF021E00D1EBE55046137808A900F094
:103AF00071FAA5E62189FFF701FA021EF4D1DFE58C
:103B0000022B00D112E13C4B002B00D1D8E500E0A4
:103B100000BF0200002A00D1D2E5D3E7FFF7E6F9A3
:103B20001223020008A9504600F054FA88E62D48F6
:103B30002D4F5AE7E288002A08D142465B449E197D
:103B40003036F378012A21D09B072ED5002F00D1E3
:103B500036E5F86800F0A6FAFB6808AA012150468D
:103B60009847002000F09EFA34235A46D35CDB07C6
:103B700000D525E505E7184A5E00F3181668DB0056
:103B8000F618002E00D19BE5F06814E79B07DDD501
:103B90001A4B1878FFF710FC0222F3789343424641
:103BA000F370F3789343F370D0E7144B1878FFF772
:103BB000E7FB0222F37813430122F370F3781343F7
:103BC000F370C3E706AB9A1C5046012308A9167090
:103BD00000F000FAF4E4C04684120020012B00102B
:103BE00080200220D5440010BC7500107C750010A8
:103BF000000000000000000000000000EC0E0020AB
:103C0000581EC0B2FFF776F9002800D158E5437876
:103C10000593022B00D053E50121C27907009311CF
:103C200052110B400A4012015B0113435A461278AD
:103C30002F318A4313435A461370C37882781B028C
:103C40001343C31809370393039BBB4200D8ACE06E
:103C500001227B7800920B2B03D1FB7800933B78F9
:103C6000FF187B78042B00D02AE50026039B584AD6
:103C7000DB1B9BB20293574B04931B78B24263D079
:103C8000B846B34256D800D01AE5534B534F41467D
:103C90005046029A9847082803D9029A824200D3D4
:103CA0008AE0049B01361B78F6B2B342E9D207E5FD
:103CB0005046FFF74FFBB378454A0093454B00262B
:103CC00098461B78002A0DD0454FB34225D820D105
:103CD000444B50469847434601361B78F6B2B342F0
:103CE000F3D206E0504600F06BFB43461B78002BF6
:103CF0000FD1532200215846FEF740FD5B461022AB
:103D0000FF21D81CFEF73AFD2022FF213648FEF79E
:103D100035FD5B46009A9A7083E618233A68734330
:103D200094466344002BF4D05B68D2E7FFF7E2F8D7
:103D30000200EFE62A4B1F6818237343FF18002F79
:103D400000D1BDE4BB68A2E7029B39001A005046CF
:103D5000984600F04BFB082800D8B1E44246824266
:103D600000D2ADE41D4B9846009B012B28D00022C9
:103D70000AE0BB78D318DBB25B44D978FF2900D0C6
:103D80009EE40132DE70D2B2009B9A42F1D18046AD
:103D9000330002003900144800F03CFD049B474406
:103DA0001B78B34200D34FE78AE4104B002B00D1BD
:103DB0003BE600E000BF38E63B0047469846D3E7C5
:103DC0004246054B92689A42D1D1059B0093CEE7BB
:103DD000012B001080200220ED430010BC75001064
:103DE00084120020C1430010BF1500200000000015
:103DF000F8B557464E46DE4645460C00E0B516007F
:103E00001F00002A3CD0702398461E4B00259B467D
:103E10001D4B9A461AE05B461B7820009946534694
:103E2000997800F0BBFC00281CD021004846FFF721
:103E30000DFA002816D0A378DA09012A19D00A9AB7
:103E4000013513702378E418B54219DA6378052B2D
:103E500008D1E3789B079B0FBB4203D14246A3786E
:103E60001A42D8D00020F0BCBB46B246A946A046B4
:103E7000F8BD0B9A013513702378E418B542E5DBE1
:103E80000120F0E7EC0E0020AC150020802310B5D7
:103E90001B0184B001930E4B02901C680391626970
:103EA000EFF3108372B611680029FCD0BFF35F8F67
:103EB000A361200001A900F0F9FD6269A369BFF3C5
:103EC0005F8F0021116083F3108804B010BDC046DD
:103ED00004160020702270B58B780C001A4201D0B5
:103EE000002070BD064B20001D78064B997800F02D
:103EF00055FC0028F4D021002800FFF7A7F9F0E7CF
:103F0000EC0E0020AC150020074B080019687F2339
:103F100010B50340C0095B0033301818034B181864
:103F200000F0F8FB10BDC04600160020AC150020C4
:103F3000074B080019687F2310B50340C0095B00D8
:103F400033301818034B181800F00CFC10BDC04695
:103F500000160020AC1500207F2070B508400F4CE3
:103F60004000CD09241864193034E5780020ED07AD
:103F700000D570BD0126E578094835430078E57025
:103F8000FFF7ECF90028F4D10122E3789343E370C2
:103F9000E37803329343E370EBE7C046AC150020AF
:103FA000EC0E002070B50A4E0500300008220C000F
:103FB000FEF7EAFB00237F21F3602278B360914291
:103FC0005B412800D90100220023FFF7C5FF70BD27
:103FD00050150020F8B5CE46474691462A4E80B58A
:103FE0000822070030000D009846FEF7CDFB4B4637
:103FF000B3600023F381EC79A97924020C43231CDC
:10400000444500D943469AB29046B381002C13D060
:10401000002A1FD04B46002B34D0131C402A1FD837
:104020009BB2984633787F2B20D80021174A43460D
:104030003800FFF791FF09E07F222B7838009A4281
:10404000644100230022E101FFF786FFC0BCB946AE
:10405000B046F8BD33787F2B11D980210022E6E7E6
:1040600040239BB2984633787F2BDED9074C4246DB
:1040700049462000FEF788FB80212200D7E7002177
:104080000022D4E70020E1E7501500206C15002045
:1040900010B5142200210248FEF770FB10BDC04687
:1040A00050150020014B18617047C0465015002084
:1040B00010B5054C010008222000FEF765FB002327
:1040C000A360E36010BDC04650150020F8B53B4C1E
:1040D0001D0023780600DA09C9098A4213D000209E
:1040E000002D00D0F8BD364B002B03D0210030004E
:1040F000FFF79EF82369002B44D0220003213000F3
:1041000098470120EEE77F2B06D8A068002837D01B
:104110002A002C49FEF738FBA368E2895919521985
:10412000E38892B2E281A160934214D03F2D12D96C
:10413000A589A81A071C80B240282FD82378BFB2BF
:104140007F2B2DD80021AA4235D01E4A3B003000DB
:10415000FFF702FFC6E72369002B05D022000221EA
:104160003000984700280FD07F22002123783000AC
:104170009A42494100230022C901FFF7EDFEB1E751
:104180000020AFE70120ADE700213000FFF7F8F88D
:1041900030008021FFF7F4F80120A3E74027CDE7A6
:1041A000AA4207D0074C3A002000FEF7EDFA802122
:1041B0002200CBE780210022C8E7C046501500202E
:1041C000313200106C15002010B50400FFF75AF9C9
:1041D000002801D1002010BDFFF75CF90028F9D1BB
:1041E000B22080004443034800190379012018409D
:1041F000F1E7C04688120020B2239B00584310B557
:10420000024B1030C01800F057FB10BD8812002080
:10421000F0B5B225AD0045432C00C646174F10340B
:10422000E41900B5200092B200F0CAFB060020009D
:1042300000F060FB3F2803D8300080BCB846F0BDDA
:104240007B190020D9789846FFF75EFE0028F3D04E
:10425000200000F04FFB3F280AD992239B00EA1868
:104260004346D219D97800204023FFF775FEE3E7D3
:1042700043460020D978FFF75BFEDDE78812002077
:10428000F8B50400FFF7FEF8002801D10020F8BDC2
:10429000FFF700F90028F9D1B2208000444325003F
:1042A000144E2435AD19280000F006FB0028EDD08F
:1042B00037190020B978FFF727FE0028E6D0A2239F
:1042C0009B009C466444A41921002800402200F071
:1042D00077FBB978051E08D0030022000020FFF705
:1042E0003BFE0028D2D02800D1E70020FFF720FEB7
:1042F000CCE7C0468812002070B5B224A400444325
:10430000094B2434E418050092B2200000F012FC9E
:104310000600200000F0D0FA3F2801D8300070BD20
:104320002800FFF7ADFFF9E788120020B2239B00B9
:10433000584310B5024B2430C01800F0DBFA10BD12
:1043400088120020B222F0B51B4C83B0002120005F
:104350009200FEF713FAFF236371184B80260025A5
:10436000E380012708232100200076002373320018
:10437000278138310095073B103000F065FA2100A5
:10438000200039313200FF3101230097243000F042
:104390005BFA8E239B00E6183000FCF78BFD902320
:1043A0009B002662E6183000E561FCF783FD26637A
:1043B000656303B0F0BDC0468812002000C2FFFF55
:1043C00010B5094C052200212000FEF7D7F9200086
:1043D0002434103000F062FC200000F05FFC01216A
:1043E000200000F07BFC10BD88120020F0B54B7956
:1043F000060083B0022B02D18B79022B03D000255B
:10440000280003B0F0BD304FBB78002BF7D18B787C
:1044100009253B700C780C196378242B0BD1082AE2
:1044200002D80FE0AA420DD32378E418ED18637880
:10443000ADB2242BF6D0052B21D0042B02D1637909
:104440000A2B2FD0214C200000F054FA3F28D7D956
:104450002600103E0020F178FFF756FD0028CFD04F
:10446000200000F047FA3F2817D98E239B00E2185E
:10447000F93BF178FF3B0020FFF76EFDC0E721001C
:104480003000FFF727FD0028B9D0A3787B70237890
:10449000ED18E4186378ADB2CFE7F1780020FFF7AC
:1044A00047FDADE70A4B27780193013300930222C1
:1044B00002233000E119FFF79BFC00289FD00E3546
:1044C000ED19ADB2BEE7C046881200209812002058
:1044D0008A120020F8B560231400127805001340FA
:1044E0000020202B12D12F4A6379277916781B02DE
:1044F0003B439E420AD16378222B27D007D8202B3A
:1045000017D0212B02D101293DD00120F8BD232B4A
:10451000FCD101293FD00329F7D1234B002BF4D044
:10452000E178A37809020020194300E000BF0120D0
:10453000ECE7012927D00329E7D11C4B002BE4D05D
:104540000020911DFEF7E2FA0120DFE7012922D0C9
:104550000329DAD101252E00A378E4780239240258
:104560001C431471264024321000714000F0B6FB49
:104570000F4B002BC9D06208002031002A4000E018
:1045800000BF0120C2E7072321002800094AFFF7E6
:1045900021FD0120BAE721002800FFF703FD0120DB
:1045A000B4E7C04688120020000000000D2B001068
:1045B000000000008E120020F8B557464E464546D2
:1045C000DE46E0B5494F8046FA780C001E008A426C
:1045D00064D19AB292239B00FD1810239B46BB44E2
:1045E0002900584600F0A6FA414BD946002B18D0B6
:1045F0007B79D946FF2B14D0002E12D0AA199246EF
:1046000003E0013555450CD07B792A789A42F8D1E0
:10461000484600F067F90028F3D1797900E000BF3F
:10462000EFE7344B002B04D0484600F05BF900283C
:1046300052D0484600F05EF93F2834D84A46103A36
:104640009378A34207D001242000F0BCBB46B246B9
:10465000A946A046F8BD284B002B02D0002000E060
:1046600000BF0020FFF70CFE0028ECD1234D2800EE
:1046700000F022F90028E6D1002EE4D0B306E2D102
:10468000243D4046A978FFF73FFC041EDBD0002301
:1046900000224046A978FFF75FFCD5E7BB788B4244
:1046A000D9D00024D0E74D46103D0020E978FFF72F
:1046B0002BFC002801D1AB78C3E7484600F01AF97B
:1046C0003F280CD98E22920040230020E9784A44EA
:1046D000FFF742FCAB78B4E7FEF78AFBA9E70020BE
:1046E000E978FFF725FCAB78ABE7C04688120020DD
:1046F00000000000F12D001000000000AC120020AE
:1047000010B50020FEF7D8FE10BDC04610B5FEF76C
:10471000C9FE10BD037870B5DB0704000E00DD0F85
:10472000002B17D103785B0701D5280070BD01214C
:104730003000494202F0ACFD2378DB07DD0F002B8F
:104740000AD123785B0708D4042223780125134378
:10475000237002E00025E8E70025300002F068FD44
:10476000E3E7C04670B50D0001210400494228006E
:1047700002F08EFD23785B07DE0F002B04DB2800A0
:1047800002F056FD300070BD2378DB0704D404220C
:10479000237893432370F2E70026F0E710B54379BE
:1047A00004791B0223435B055A0DC3789B079B0FBB
:1047B000022B05D0032B15D00020012B08D010BDF3
:1047C00002291CD00020402393424041C0B2F6E7AA
:1047D00002394B4259410D4B9C4661449142404144
:1047E000C0B2ECE702394B425941F0230020494264
:1047F0009B001940403191424041C0B2DFE7044B79
:10480000D3185A425341D8B2D9E7C046FF0300003B
:1048100000FEFFFF8A1870B5914207D27F264C78C0
:10482000052C04D00C7809198A42F8D870BD3400E0
:104830008D782C4064000419ED0963550C78091932
:104840008A42ECD8F2E7C046F0B5C64600B504008F
:1048500006A805788020884617001E0000028242C4
:1048600027D8E068002803D00121494202F010FD5A
:104870002069002803D00121494202F009FD434686
:10488000236073045B0CED031D430023E068638128
:10489000A780E5802381002801D002F0C9FC2069AF
:1048A0000124002801D002F0C3FC200080BCB846DF
:1048B000F0BD0024F9E7C04610B50489418982881B
:1048C000A3B288B28C4207D31B1A9BB2101C9A4227
:1048D00000D9181C80B210BD5100091A5B189BB298
:1048E000F4E7C046030000895B89C01A434258417F
:1048F000C0B2704710B5048941898288A3B288B2DA
:104900008C4207D31B1A9BB200209A4201D9D31ABA
:1049100098B210BD5100091A5B189BB2F4E7C0466B
:1049200070B5040000690E00002803D0012149423F
:1049300002F0AEFC25896089A288A9B283B28542C3
:104940002CD3CD1AADB2002D2ED0AA4208D291425E
:1049500031D38B1A9BB263819A4203D89B1A9BB2C4
:104960009A42FBD9E28821685204520C534330002A
:10497000C918FDF709FF618901254B1C9BB2A2886C
:10498000994214D9002352009B1A9BB2206963817B
:10499000002801D002F04CFC280070BD5500ED1A33
:1049A0004D19ADB2002DD0D1002563899BB25200C4
:1049B0009342EBDBE8E789188BB26381CCE7C04612
:1049C000F0B546464F46D646C0B506000069894652
:1049D0009046002803D00121494202F059FC318958
:1049E0007289B5888BB294B2914257D31F1BBFB264
:1049F000002F4DD0BD4205D2AB4254D25B199CB2C0
:104A00002F0074814346B84540D89FB2A54203D8D1
:104A1000641BA4B2A542FBD9F288281B5204530C94
:104A200019009846336861439C4680B261448742CE
:104A300026D94346584383B21A0048469A46FDF7A2
:104A4000A3FE434648467D1B64195C4331685044CD
:104A5000A2B2FDF799FE7189B588CB199BB26A00A5
:104A6000994217D99B1A9BB230697381002801D0F3
:104A700002F0DEFB3800E0BCBA46B146A846F0BD05
:104A8000424648467A43FDF77FFEE4E73B1CBCE71D
:104A900073899BB26A009342E6DBE3E76F003F1B3A
:104AA000DF19BFB2A4E75B1B9CB2A9E7F8B504000D
:104AB000C0680E00002803D00121494202F0E8FB43
:104AC000258920896189A288ADB283B28FB28842DC
:104AD00028D3DB1B9BB29A4209D8E779FF0906D19C
:104AE000E068002801D002F0A3FB3800F8BD2B00DD
:104AF000954203D39B1A9BB29342FBD2E288216872
:104B00005204520C5343C8183100FDF73DFEA288F1
:104B10006B1C9BB252009D4209D99B1A9BB2012784
:104B20002381DDE75100C91B5B189BB2D3E7934299
:104B3000F5DBF2E7F0B54E464546DE465746E0B5B2
:104B400089460500140083B0002A6ED0C068002892
:104B500003D00121494202F09BFB2F89EA796B893E
:104B6000BFB29BB2D20942D1AE889F4267D27200D7
:104B7000D31AFB189BB2002290469E4231D9F31AF9
:104B80001A1C9BB2A34200D9221C93B29846E88813
:104B90004346FB189BB29B463C00B74203D3A41B81
:104BA000A4B2B442FBD24004430C18009A462B68CE
:104BB00060439C46311B89B2604441454ED3524606
:104BC000434649465A43FDF7DFFDAB885B00BB45D2
:104BD00001D39B4503DB5A46D31A9BB29B465B46E7
:104BE0002B81E868002822D002F022FB1FE0AA886F
:104BF0009046944226D29F4244D34146FA1A92B23A
:104C0000490012198A4209DB42469A1892B2171BD0
:104C1000BFB29346BB423AD97F1ABFB2E3199BB2E7
:104C200046469B46A046E888B6E70023984640469D
:104C300003B0F0BCBB46B246A946A046F0BDFB1A85
:104C40009BB298E7E888A21A4404640C5443424695
:104C5000A144002AC5D046461F0099E75346594350
:104C600089B20A0001914946FDF78EFD43469A1B21
:104C70005346A2185A430199286892B24944FDF755
:104C800083FDA2E75100CA1ABA1892B2B9E7B94235
:104C9000C2DD4646E888A0467EE7C04610B504005F
:104CA000C068002803D00121494202F0F1FA2069CE
:104CB000002803D00121494202F0EAFA0023E0680B
:104CC00063812381002801D002F0B2FA2069002814
:104CD00001D002F0ADFA012010BDC04670B504004D
:104CE000C0680D00002803D00121494202F0D0FA2B
:104CF0002069002803D00121494202F0C9FA7F212E
:104D0000E379ED011940E0682943E171002801D001
:104D100002F08EFA2069002801D002F089FA012001
:104D200070BDC0467047C046000000000000000093
:104D30000B4A13681868203080F30988022080F33A
:104D40001488BFF36F8F3FBCAE4608BC04BC62B68C
:104D50001847C046C046C046C046C046C046C046CA
:104D6000B41C002000000000000000000000000053
:104D7000EFF30980164B1A6820381060F0C04446E3
:104D80004D4656465F46F0C00D221207146E556E12
:104D9000566F176F3038F0C008B572B601F0D2FB0D
:104DA00062B60CBC116808681030F0C8A046A9466D
:104DB000B246BB4680F309880D2212073038F0C88E
:104DC0001466556656671767F0C81847C046C04650
:104DD000B41C002010B5FDF769F9C04610B5802459
:104DE000031F64041C60043B19600349043B196001
:104DF000143B40381A6010BDD54D00108022044B82
:104E000052051A60BFF34F8FBFF36F8F7047C046D4
:104E100004ED00E072B6044A136801331360BFF377
:104E20004F8FBFF36F8F7047981F0220094A136896
:104E3000013B1360002B0CD1074A1168002907D0F1
:104E400006480068BFF35F8F0B6080F31088136023
:104E500062B67047981F02204C1F0020801F02205E
:104E6000EFF3108072B6704780F310887047C04629
:104E700010B5FFF7F5FF040001F052FB002803D046
:104E80008022034B52051A602000FFF7EDFF10BD92
:104E900004ED00E0002310B5084A094C052023600A
:104EA0001360FCF7AFFFFA218900FDF765F9054BA8
:104EB000013818600723236010BDC04618E000E0E9
:104EC00010E000E014E000E0FF22154B1204196826
:104ED00010B50A431A60FF220220196812060A431D
:104EE0001A601049404202F057F801200E49404232
:104EF00002F052F805200D49404202F04DF8FFF74C
:104F0000C9FF00220A4B1A60D0231B061A68094BFE
:104F10001A70FFF70DFF01F015FBFDF7C7F8C0464B
:104F200020ED00E0714D0010714E0010254D001075
:104F3000981F0220ED0E0020D02310B51B06186824
:104F4000074B1B78834200D010BDEFF30583002B85
:104F500002D05B00C018F7E701F03AFDF4E7C04665
:104F6000ED0E002000B51C4A0B001178D02212066D
:104F7000126883B0914209D040BF0268BFF35F8FCF
:104F80000021116083F3108803B000BD0221006886
:104F9000124AFF31821892109140090ABFF35F8FC5
:104FA0000022026083F31088EFF30583DBB2002B4D
:104FB0000DD00B4B0192186801AA00F091F9019BEA
:104FC000002BE1D08022074B52051A60DCE7044B2E
:104FD000186800F03DF9D7E7ED0E002000FFFF2F25
:104FE0000020022004ED00E0F0B5CE46474680B533
:104FF0001D00344B14001A78D0231B061B68814611
:10500000884683B09A420FD00368BFF35F8F0022B7
:105010001A6081F3108820002900FCF705FA03B01C
:10502000C0BCB946B046F0BDFCF7D2FA22002B0056
:105030000127121A8B41244E7F42B6185F41002F80
:1050400020DC1BD04B461B68BFF35F8F00221A6029
:1050500088F310881D4B5A6A954205D89B6A012037
:10506000A342DCD29542DAD18022194B52051A6054
:10507000BFF34F8FBFF36F8F0020D0E7FA239B0061
:105080009E42DFD3FA220023300039009200FDF760
:1050900099F8031ED6D04A46404612680D490A6068
:1050A0000D4908600D498C46022162449210FF317F
:1050B00091400B4A090A106800930122002300F076
:1050C0006BF8C7E7ED0E002018FCFFFF004005401D
:1050D00004ED00E04C1F0020801F022000FFFF2F86
:1050E0000020022010B500F04BF8014B186010BDF5
:1050F00000200220F8B5DE4657464E464546E0B54C
:1051000005000F00060001F031F929682C693943C8
:105110000C362960A6422AD0002398468023DB045F
:105120009B4680235B049A4680239B0499460EE0AD
:105130000B420AD057463A4202D042461A439046A2
:105140004B46194301F0ACFB2968A6420DD0200064
:105150005F460268646813021B0A3A42E8D01F00E7
:105160000F40BB42E6D0A642F1D1434699432960A5
:1051700001F004F9F0BCBB46B246A946A046F8BD12
:1051800010B51C2001F02CFF041E03D0002308C022
:1051900000F0B0F8200010BDF0B5C646060000B51E
:1051A0000D0090461F0001F0E1F83468002F0AD18D
:1051B00025420CD04346002B0CD02300AB43336078
:1051C00001F0DCF808E02B0023409D42F2D0069B62
:1051D000002B05D101F0D2F8200080BCB846F0BD0C
:1051E0004346002B16D180210023C904002F00D193
:1051F0001900069A2943301D01F026FA01F0BEF885
:1052000000281CD001F0A6FC0400830107D524026D
:10521000240AE1E7A0218023C9045B04E6E7FFF745
:10522000F9FD3468002F0DD12C4205D04346002BE8
:1052300002D02300AB433360FFF7F8FDE7E7FFF749
:10524000DDFDDFE723002B409D42F5D1EEE7C046B0
:10525000F8B5DE4657464E464546E0B505000F0018
:10526000060001F083F829682C6939430C3629605F
:10527000A6422AD0002398468023DB049B46802345
:105280005B049A4680239B0499460EE019420AD09B
:1052900057463A4202D042461A4390464B4619437B
:1052A00001F0FEFA2968A6420DD020005F46026890
:1052B000646813021B0A3A42E8D00F001F409F4265
:1052C000E6D0A642F1D143469943296001F056F851
:1052D0002868F0BCBB46B246A946A046F8BDC04609
:1052E00010B513000A000100014801F041FE10BD95
:1052F000F55000100300083301224360C3600361CE
:1053000000235242826003607047C046002303615D
:105310007047C046030030B50C680833621C0DD0DE
:105320001A005B681D68A542FAD94B609960036852
:105330008A60013351600861036030BD02695368BF
:10534000F3E7C0460369416882688A605160596822
:10535000814206D0002202611A68013A1A60186878
:1053600070475A60F6E7C046F0B5DE464E465746EF
:105370004546E0B585B00600FFF74CFD4523F45CDB
:1053800064B2002C21DD213B994621339B46B14478
:1053900009E0AB6BEA6B0396934245D3013CE3B261
:1053A00064B2002B11D0B56C002DF2D1736A002BC2
:1053B0000BD0484601F008FA0028EFD001F002FBBC
:1053C000013CE3B264B2002BEDD14523FF22F2543D
:1053D000FFF72CFDFFF71EFD4423F45C64B2002CA4
:1053E00016DD3500103504E0013CE2B264B2002A5B
:1053F0000ED03369002B0BD0280001F0E5F900280E
:10540000F2D0013C01F0DEFAE2B264B2002AF0D13F
:105410004423FF22F254FFF709FD05B0F0BCBB4660
:10542000B246A946A046F0BD5B462A6CEF5CAB6B6A
:105430007FB29846002A13D12B680193002B30D0FD
:1054400000239A4643460133AB637B1C17D16B6A3A
:10545000002B1DD15346002BA0D001F0B3FAAFE7CB
:10546000686803A9FDF790F92A6C6B689446AA68EE
:1054700063446B609342E3D32B686B60E0E701F019
:1054800049F8B842E6D95B4601377FB2EF54E1E70D
:105490002800243001F098F90028DBD001F092FABE
:1054A0008EE7A86801F0E4FA019B8246AB60C9E789
:1054B000F0B5C64600B5846C82B0A36BE26B0025E4
:1054C0000190934204D3280002B080BCB846F0BDDE
:1054D0004523226CE65CA76B76B2002A1CD060687C
:1054E00001A9FDF751F9226C63689446A2686344F0
:1054F0006360934214D3236863600137A763731C0E
:1055000013D1636A002BDED02000243001F05CF957
:105510000028D8D00125D6E723689846002B0DD067
:1055200001370025A763731CEBD000F0F3FF864220
:10553000C9D24523013676B2E654C4E7A06801F02B
:1055400097FA43460500A360D7E7C046F8B50500C3
:105550000E001700002846D00B0C020C002B34D193
:10556000331C002A35D130006843030055333AD844
:10557000543001F035FD041E35D00300002E00D05C
:1055800054332360E5632664FFF744FC216CE36B2E
:1055900022684B43D0185B1AD3186260E360002581
:1055A000FF234422A0602000A563A3540132A3542A
:1055B0001030FFF79FFE20002430FFF79BFEFFF71F
:1055C00035FC5023E754A5640EE0002A0BD11A1CC9
:1055D000031CB0B2A9B2414398B293B24343090C41
:1055E0005B181B0CBFD000242000F8BDF0B5CE46E0
:1055F000474604001E00002380B585B099460192FD
:105600008846FFF707FCA36BE26B00274425934213
:1056100037D3022E72D0019B002B00D18AE0002FDD
:1056200068D0FFF703FC00F0A1FEFFF7F3FB625D1B
:1056300052B2531C01D14B4663554523E25C52B232
:10564000013201D14A46E254FFF7F0FB01A902A85A
:1056500001F07EF9002800D074E0FFF7DBFBA36BBC
:10566000E26B934234D0FFF7E1FB2000FFF77CFEB2
:1056700000F084FE0127FFF7CDFBA36BE26B9342A2
:10568000C7D2226CA76BA56B002A3CD04146002EE6
:1056900000D084E06068FDF777F8226C6368944678
:1056A000A26863446360934201D323686360A36C80
:1056B0000135A563002B34D1636A002B36D020005E
:1056C000243001F081F8002830D0FFF797FB2DE05F
:1056D000FFF7ACFB20000199103000F069FF2000BB
:1056E000FFF742FE00F04AFE0028C3D1FFF786FB19
:1056F0000127C0E702A801F01FF992E7226CA76B0F
:10570000A56B002A25D1236800209846002B40D0A5
:10571000A36C0135A563002B35D0022E01D1002FDB
:1057200004D12000FFF7C4FE0028CED1FFF77EFB96
:10573000012002E0FFF77AFB002005B0C0BCB946AB
:10574000B046F0BD2000FFF70FFE00F017FE00206E
:10575000F3E74146E068FDF717F8E168236C5A4229
:10576000CB1A2168E3608B4205D2A3689C46624451
:10577000E260022E9BD1002D00D10135A36CA56300
:10578000002BCCD198E7636A002B98D100289CD1DC
:10579000CCE7A06801F06CF94346A360B8E7E06885
:1057A000FCF7F2FFE168236C5A42CB1A2168E360F0
:1057B0008B42DED2D9E7C046F8B54E46DE465746A4
:1057C00045460400E0B591461D000F00FFF748FB79
:1057D000A36BE26B060093423AD3022D0AD0002459
:1057E0003000FFF741FB2000F0BCBB46B246A946A3
:1057F000A046F8BD4523E35C226C5BB29846A36BE0
:105800009B46A36B9A46002A2DD03900E068FCF72E
:10581000BBFFE168236C5A42CB1A2168E3608B42DC
:1058200003D2A3689C466244E2605346022D54D0E2
:105830000133A363434601331ED000F06BFE804565
:105840002DD24346452201335BB2A3540124C7E75E
:105850004523E35C226C5BB29846A36B9B46A36B2B
:105860009A46002A1DD12768002F3AD053460133AB
:10587000A36343460133E0D1A36C002B22D0022D59
:1058800002D15B46002B0AD12000FFF711FE002851
:1058900005D04B46002B02D001234A461360012459
:1058A0009EE7002DB1D139006068FCF76DFF226CD6
:1058B00063689446A268634463609342D6D32368C6
:1058C0006360D3E7636A002BE9D02000243000F046
:1058D0007BFF0028DDD1012482E7002BC8D10133F2
:1058E000A7E7A06801F0C4F85346A7600133BFE7FB
:1058F000F0B5C646040000B50E00FFF7B1FAA36B81
:10590000E26B050000279A4214D94522A75C0133B7
:105910007FB29046A3637B1C13D1A36C002B1AD0DB
:105920002000FFF7C5FD002813D0002E11D0012361
:10593000012733602800FFF797FA380080BCB8468B
:10594000F0BD00F0E7FD874203D2434601377FB246
:10595000E7540127EEE7636A002BFAD020002430D9
:1059600000F032FF0028E0D10127E3E7F0B5474619
:10597000CE46040080B585B088460192FFF74AFA0A
:10598000A76B002F5ED1019B002B3BD002A800F03B
:10599000D3FF0023442699464525FFF747FA00F038
:1059A000E5FCFFF737FAA35D5BB2013301D14B464B
:1059B000A355635D5BB2013301D14B466355FFF7DD
:1059C00035FA01A902A800F0C3FF002822D1FFF791
:1059D00021FAA36B002B2AD1FFF728FA20000199A6
:1059E000243000F0E5FD2000FFF7BEFC00F0C6FC0F
:1059F000002824D0FFF70EFAA76B002F22D1019BBD
:105A0000002BCAD1FFF712FA002005B0C0BCB9467E
:105A1000B046F0BD2000FFF7A7FC00F0AFFCFFF799
:105A2000F9F9A36B002BEDD0FFF700FAE2E7FFF7DF
:105A3000FDF92000FFF798FC00F0A0FCDAE7FFF783
:105A4000DDF9D7E7226C002A08D0E3689918A3682B
:105A5000E16099420BD24046FCF796FE013FA763F6
:105A60002369002B06D1FFF7E1F90120CDE721687A
:105A7000E160F0E72000103000F0A6FE0028F2D030
:105A8000FFF7BCF9EFE7C046F0B5C64600230400B7
:105A900000B584B098460191FFF7BCF9A36B0026CE
:105AA00000274425002B3CD1019B002B00D178E03E
:105AB000002F50D0FFF7BAF900F058FCFFF7AAF911
:105AC000635D5BB2013301D1434663554522A35C5C
:105AD0005BB2013301D14346A354FFF7A7F901A9F3
